{"abi":[{"type":"constructor","inputs":[{"name":"name","type":"string","internalType":"string"},{"name":"symbol","type":"string","internalType":"string"},{"name":"decimals_","type":"uint8","internalType":"uint8"},{"name":"faucetAmount_","type":"uint256","internalType":"uint256"},{"name":"_owner","type":"address","internalType":"address"}],"stateMutability":"nonpayable"},{"type":"function","name":"CLOCK_MODE","inputs":[],"outputs":[{"name":"","type":"string","internalType":"string"}],"stateMutability":"view"},{"type":"function","name":"DOMAIN_SEPARATOR","inputs":[],"outputs":[{"name":"","type":"bytes32","internalType":"bytes32"}],"stateMutability":"view"},{"type":"function","name":"FAUCET_INTERVAL","inputs":[],"outputs":[{"name":"","type":"uint256","internalType":"uint256"}],"stateMutability":"view"},{"type":"function","name":"allowance","inputs":[{"name":"owner","type":"address","internalType":"address"},{"name":"spender","type":"address","internalType":"address"}],"outputs":[{"name":"","type":"uint256","internalType":"uint256"}],"stateMutability":"view"},{"type":"function","name":"approve","inputs":[{"name":"spender","type":"address","internalType":"address"},{"name":"value","type":"uint256","internalType":"uint256"}],"outputs":[{"name":"","type":"bool","internalType":"bool"}],"stateMutability":"nonpayable"},{"type":"function","name":"balanceOf","inputs":[{"name":"account","type":"address","internalType":"address"}],"outputs":[{"name":"","type":"uint256","internalType":"uint256"}],"stateMutability":"view"},{"type":"function","name":"burn","inputs":[{"name":"account","type":"address","internalType":"address"},{"name":"amount","type":"uint256","internalType":"uint256"}],"outputs":[],"stateMutability":"nonpayable"},{"type":"function","name":"checkpoints","inputs":[{"name":"account","type":"address","internalType":"address"},{"name":"pos","type":"uint32","internalType":"uint32"}],"outputs":[{"name":"","type":"tuple","internalType":"struct Checkpoints.Checkpoint208","components":[{"name":"_key","type":"uint48","internalType":"uint48"},{"name":"_value","type":"uint208","internalType":"uint208"}]}],"stateMutability":"view"},{"type":"function","name":"clock","inputs":[],"outputs":[{"name":"","type":"uint48","internalType":"uint48"}],"stateMutability":"view"},{"type":"function","name":"decimals","inputs":[],"outputs":[{"name":"","type":"uint8","internalType":"uint8"}],"stateMutability":"view"},{"type":"function","name":"delegate","inputs":[{"name":"delegatee","type":"address","internalType":"address"}],"outputs":[],"stateMutability":"nonpayable"},{"type":"function","name":"delegateBySig","inputs":[{"name":"delegatee","type":"address","internalType":"address"},{"name":"nonce","type":"uint256","internalType":"uint256"},{"name":"expiry","type":"uint256","internalType":"uint256"},{"name":"v","type":"uint8","internalType":"uint8"},{"name":"r","type":"bytes32","internalType":"bytes32"},{"name":"s","type":"bytes32","internalType":"bytes32"}],"outputs":[],"stateMutability":"nonpayable"},{"type":"function","name":"delegates","inputs":[{"name":"account","type":"address","internalType":"address"}],"outputs":[{"name":"","type":"address","internalType":"address"}],"stateMutability":"view"},{"type":"function","name":"eip712Domain","inputs":[],"outputs":[{"name":"fields","type":"bytes1","internalType":"bytes1"},{"name":"name","type":"string","internalType":"string"},{"name":"version","type":"string","internalType":"string"},{"name":"chainId","type":"uint256","internalType":"uint256"},{"name":"verifyingContract","type":"address","internalType":"address"},{"name":"salt","type":"bytes32","internalType":"bytes32"},{"name":"extensions","type":"uint256[]","internalType":"uint256[]"}],"stateMutability":"view"},{"type":"function","name":"faucetAmount","inputs":[],"outputs":[{"name":"","type":"uint256","internalType":"uint256"}],"stateMutability":"view"},{"type":"function","name":"getPastTotalSupply","inputs":[{"name":"timepoint","type":"uint256","internalType":"uint256"}],"outputs":[{"name":"","type":"uint256","internalType":"uint256"}],"stateMutability":"view"},{"type":"function","name":"getPastVotes","inputs":[{"name":"account","type":"address","internalType":"address"},{"name":"timepoint","type":"uint256","internalType":"uint256"}],"outputs":[{"name":"","type":"uint256","internalType":"uint256"}],"stateMutability":"view"},{"type":"function","name":"getVotes","inputs":[{"name":"account","type":"address","internalType":"address"}],"outputs":[{"name":"","type":"uint256","internalType":"uint256"}],"stateMutability":"view"},{"type":"function","name":"lastMint","inputs":[{"name":"","type":"address","internalType":"address"}],"outputs":[{"name":"","type":"uint256","internalType":"uint256"}],"stateMutability":"view"},{"type":"function","name":"mint","inputs":[],"outputs":[],"stateMutability":"nonpayable"},{"type":"function","name":"name","inputs":[],"outputs":[{"name":"","type":"string","internalType":"string"}],"stateMutability":"view"},{"type":"function","name":"nonces","inputs":[{"name":"owner","type":"address","internalType":"address"}],"outputs":[{"name":"","type":"uint256","internalType":"uint256"}],"stateMutability":"view"},{"type":"function","name":"numCheckpoints","inputs":[{"name":"account","type":"address","internalType":"address"}],"outputs":[{"name":"","type":"uint32","internalType":"uint32"}],"stateMutability":"view"},{"type":"function","name":"owner","inputs":[],"outputs":[{"name":"","type":"address","internalType":"address"}],"stateMutability":"view"},{"type":"function","name":"permit","inputs":[{"name":"owner","type":"address","internalType":"address"},{"name":"spender","type":"address","internalType":"address"},{"name":"value","type":"uint256","internalType":"uint256"},{"name":"deadline","type":"uint256","internalType":"uint256"},{"name":"v","type":"uint8","internalType":"uint8"},{"name":"r","type":"bytes32","internalType":"bytes32"},{"name":"s","type":"bytes32","internalType":"bytes32"}],"outputs":[],"stateMutability":"nonpayable"},{"type":"function","name":"renounceOwnership","inputs":[],"outputs":[],"stateMutability":"nonpayable"},{"type":"function","name":"setFaucetAmount","inputs":[{"name":"faucetAmount_","type":"uint256","internalType":"uint256"}],"outputs":[],"stateMutability":"nonpayable"},{"type":"function","name":"symbol","inputs":[],"outputs":[{"name":"","type":"string","internalType":"string"}],"stateMutability":"view"},{"type":"function","name":"totalSupply","inputs":[],"outputs":[{"name":"","type":"uint256","internalType":"uint256"}],"stateMutability":"view"},{"type":"function","name":"transfer","inputs":[{"name":"to","type":"address","internalType":"address"},{"name":"value","type":"uint256","internalType":"uint256"}],"outputs":[{"name":"","type":"bool","internalType":"bool"}],"stateMutability":"nonpayable"},{"type":"function","name":"transferFrom","inputs":[{"name":"from","type":"address","internalType":"address"},{"name":"to","type":"address","internalType":"address"},{"name":"value","type":"uint256","internalType":"uint256"}],"outputs":[{"name":"","type":"bool","internalType":"bool"}],"stateMutability":"nonpayable"},{"type":"function","name":"transferOwnership","inputs":[{"name":"newOwner","type":"address","internalType":"address"}],"outputs":[],"stateMutability":"nonpayable"},{"type":"event","name":"Approval","inputs":[{"name":"owner","type":"address","indexed":true,"internalType":"address"},{"name":"spender","type":"address","indexed":true,"internalType":"address"},{"name":"value","type":"uint256","indexed":false,"internalType":"uint256"}],"anonymous":false},{"type":"event","name":"DelegateChanged","inputs":[{"name":"delegator","type":"address","indexed":true,"internalType":"address"},{"name":"fromDelegate","type":"address","indexed":true,"internalType":"address"},{"name":"toDelegate","type":"address","indexed":true,"internalType":"address"}],"anonymous":false},{"type":"event","name":"DelegateVotesChanged","inputs":[{"name":"delegate","type":"address","indexed":true,"internalType":"address"},{"name":"previousVotes","type":"uint256","indexed":false,"internalType":"uint256"},{"name":"newVotes","type":"uint256","indexed":false,"internalType":"uint256"}],"anonymous":false},{"type":"event","name":"EIP712DomainChanged","inputs":[],"anonymous":false},{"type":"event","name":"FaucetAmountSet","inputs":[{"name":"faucetAmount","type":"uint256","indexed":false,"internalType":"uint256"}],"anonymous":false},{"type":"event","name":"OwnershipTransferred","inputs":[{"name":"previousOwner","type":"address","indexed":true,"internalType":"address"},{"name":"newOwner","type":"address","indexed":true,"internalType":"address"}],"anonymous":false},{"type":"event","name":"Transfer","inputs":[{"name":"from","type":"address","indexed":true,"internalType":"address"},{"name":"to","type":"address","indexed":true,"internalType":"address"},{"name":"value","type":"uint256","indexed":false,"internalType":"uint256"}],"anonymous":false},{"type":"error","name":"CheckpointUnorderedInsertion","inputs":[]},{"type":"error","name":"ECDSAInvalidSignature","inputs":[]},{"type":"error","name":"ECDSAInvalidSignatureLength","inputs":[{"name":"length","type":"uint256","internalType":"uint256"}]},{"type":"error","name":"ECDSAInvalidSignatureS","inputs":[{"name":"s","type":"bytes32","internalType":"bytes32"}]},{"type":"error","name":"ERC20ExceededSafeSupply","inputs":[{"name":"increasedSupply","type":"uint256","internalType":"uint256"},{"name":"cap","type":"uint256","internalType":"uint256"}]},{"type":"error","name":"ERC20InsufficientAllowance","inputs":[{"name":"spender","type":"address","internalType":"address"},{"name":"allowance","type":"uint256","internalType":"uint256"},{"name":"needed","type":"uint256","internalType":"uint256"}]},{"type":"error","name":"ERC20InsufficientBalance","inputs":[{"name":"sender","type":"address","internalType":"address"},{"name":"balance","type":"uint256","internalType":"uint256"},{"name":"needed","type":"uint256","internalType":"uint256"}]},{"type":"error","name":"ERC20InvalidApprover","inputs":[{"name":"approver","type":"address","internalType":"address"}]},{"type":"error","name":"ERC20InvalidReceiver","inputs":[{"name":"receiver","type":"address","internalType":"address"}]},{"type":"error","name":"ERC20InvalidSender","inputs":[{"name":"sender","type":"address","internalType":"address"}]},{"type":"error","name":"ERC20InvalidSpender","inputs":[{"name":"spender","type":"address","internalType":"address"}]},{"type":"error","name":"ERC2612ExpiredSignature","inputs":[{"name":"deadline","type":"uint256","internalType":"uint256"}]},{"type":"error","name":"ERC2612InvalidSigner","inputs":[{"name":"signer","type":"address","internalType":"address"},{"name":"owner","type":"address","internalType":"address"}]},{"type":"error","name":"ERC5805FutureLookup","inputs":[{"name":"timepoint","type":"uint256","internalType":"uint256"},{"name":"clock","type":"uint48","internalType":"uint48"}]},{"type":"error","name":"ERC6372InconsistentClock","inputs":[]},{"type":"error","name":"InvalidAccountNonce","inputs":[{"name":"account","type":"address","internalType":"address"},{"name":"currentNonce","type":"uint256","internalType":"uint256"}]},{"type":"error","name":"InvalidShortString","inputs":[]},{"type":"error","name":"OwnableInvalidOwner","inputs":[{"name":"owner","type":"address","internalType":"address"}]},{"type":"error","name":"OwnableUnauthorizedAccount","inputs":[{"name":"account","type":"address","internalType":"address"}]},{"type":"error","name":"SafeCastOverflowedUintDowncast","inputs":[{"name":"bits","type":"uint8","internalType":"uint8"},{"name":"value","type":"uint256","internalType":"uint256"}]},{"type":"error","name":"StringTooLong","inputs":[{"name":"str","type":"string","internalType":"string"}]},{"type":"error","name":"VotesExpiredSignature","inputs":[{"name":"expiry","type":"uint256","internalType":"uint256"}]}],"bytecode":{"object":"0x610160604052348015610010575f5ffd5b50604051612e02380380612e0283398101604081905261002f916102df565b808580604051806040016040528060018152602001603160f81b8152508888816003908161005d9190610408565b50600461006a8282610408565b5061007a91508390506005610182565b61012052610089816006610182565b61014052815160208084019190912060e052815190820120610100524660a05261011560e05161010051604080517f8b73c3c69bb8fe3d512ecc4cf759cc79239f7b179b0ffacaa9a75d522b39400f60208201529081019290925260608201524660808201523060a08201525f9060c00160405160208183030381529060405280519060200120905090565b60805250503060c052506001600160a01b03811661014d57604051631e4fbdf760e01b81525f60048201526024015b60405180910390fd5b610156816101b4565b5050600b805460ff909316600160a01b0260ff60a01b1990931692909217909155600c555061051a9050565b5f60208351101561019d5761019683610205565b90506101ae565b816101a88482610408565b5060ff90505b92915050565b600b80546001600160a01b038381166001600160a01b0319831681179093556040519116919082907f8be0079c531659141344cd1fd0a4f28419497f9722a3daafe3b4186f6b6457e0905f90a35050565b5f5f829050601f8151111561022f578260405163305a27a960e01b815260040161014491906104c2565b805161023a826104f7565b179392505050565b634e487b7160e01b5f52604160045260245ffd5b5f82601f830112610265575f5ffd5b81516001600160401b0381111561027e5761027e610242565b604051601f8201601f19908116603f011681016001600160401b03811182821017156102ac576102ac610242565b6040528181528382016020018510156102c3575f5ffd5b8160208501602083015e5f918101602001919091529392505050565b5f5f5f5f5f60a086880312156102f3575f5ffd5b85516001600160401b03811115610308575f5ffd5b61031488828901610256565b602088015190965090506001600160401b03811115610331575f5ffd5b61033d88828901610256565b945050604086015160ff81168114610353575f5ffd5b6060870151608088015191945092506001600160a01b0381168114610376575f5ffd5b809150509295509295909350565b600181811c9082168061039857607f821691505b6020821081036103b657634e487b7160e01b5f52602260045260245ffd5b50919050565b601f82111561040357805f5260205f20601f840160051c810160208510156103e15750805b601f840160051c820191505b81811015610400575f81556001016103ed565b50505b505050565b81516001600160401b0381111561042157610421610242565b6104358161042f8454610384565b846103bc565b6020601f821160018114610467575f83156104505750848201515b5f19600385901b1c1916600184901b178455610400565b5f84815260208120601f198516915b828110156104965787850151825560209485019460019092019101610476565b50848210156104b357868401515f19600387901b60f8161c191681555b50505050600190811b01905550565b602081525f82518060208401528060208501604085015e5f604082850101526040601f19601f83011684010191505092915050565b805160208083015191908110156103b6575f1960209190910360031b1b16919050565b60805160a05160c05160e05161010051610120516101405161289761056b5f395f61127c01525f61124f01525f610f0a01525f610ee201525f610e3d01525f610e6701525f610e9101526128975ff3fe608060405234801561000f575f5ffd5b50600436106101e7575f3560e01c806381d2fd9c116101095780639dc29fac1161009e578063d505accf1161006e578063d505accf1461049a578063dd62ed3e146104ad578063f1127ed8146104f2578063f2fde38b14610544575f5ffd5b80639dc29fac14610442578063a9059cbb14610455578063adc20b1c14610468578063c3cda52014610487575f5ffd5b806391ddadf4116100d957806391ddadf4146103ff57806395d89b411461041e5780639ab24eb0146104265780639c28143014610439575f5ffd5b806381d2fd9c146103a057806384b0196e146103b35780638da5cb5b146103ce5780638e539e8c146103ec575f5ffd5b80634bf5d7e91161017f5780636fcfff451161014f5780636fcfff451461032857806370a0823114610350578063715018a6146103855780637ecebe001461038d575f5ffd5b80634bf5d7e9146102a6578063587cde1e146102ae5780635c19a95c1461030b5780636df62cef1461031e575f5ffd5b806323b872dd116101ba57806323b872dd14610248578063313ce5671461025b5780633644e5151461028b5780633a46b1a814610293575f5ffd5b806306fdde03146101eb578063095ea7b3146102095780631249c58b1461022c57806318160ddd14610236575b5f5ffd5b6101f3610557565b60405161020091906123d7565b60405180910390f35b61021c610217366004612411565b6105e7565b6040519015158152602001610200565b610234610600565b005b6002545b604051908152602001610200565b61021c610256366004612439565b6106ab565b600b5474010000000000000000000000000000000000000000900460ff1660405160ff9091168152602001610200565b61023a6106ce565b61023a6102a1366004612411565b6106dc565b6101f3610736565b6102e66102bc366004612473565b73ffffffffffffffffffffffffffffffffffffffff9081165f908152600860205260409020541690565b60405173ffffffffffffffffffffffffffffffffffffffff9091168152602001610200565b610234610319366004612473565b6107c7565b61023a6201518081565b61033b610336366004612473565b6107d6565b60405163ffffffff9091168152602001610200565b61023a61035e366004612473565b73ffffffffffffffffffffffffffffffffffffffff165f9081526020819052604090205490565b6102346107e0565b61023a61039b366004612473565b6107f1565b6102346103ae36600461248c565b6107fb565b6103bb61083e565b60405161020097969594939291906124a3565b600b5473ffffffffffffffffffffffffffffffffffffffff166102e6565b61023a6103fa36600461248c565b61089c565b6104076108d3565b60405165ffffffffffff9091168152602001610200565b6101f36108dc565b61023a610434366004612473565b6108eb565b61023a600c5481565b610234610450366004612411565b610918565b61021c610463366004612411565b610922565b61023a610476366004612473565b600d6020525f908152604090205481565b610234610495366004612572565b61092f565b6102346104a83660046125c6565b610a11565b61023a6104bb36600461262c565b73ffffffffffffffffffffffffffffffffffffffff9182165f90815260016020908152604080832093909416825291909152205490565b61050561050036600461265d565b610bba565b60408051825165ffffffffffff16815260209283015179ffffffffffffffffffffffffffffffffffffffffffffffffffff169281019290925201610200565b610234610552366004612473565b610bde565b6060600380546105669061269a565b80601f01602080910402602001604051908101604052809291908181526020018280546105929061269a565b80156105dd5780601f106105b4576101008083540402835291602001916105dd565b820191905f5260205f20905b8154815290600101906020018083116105c057829003601f168201915b5050505050905090565b5f336105f4818585610c41565b60019150505b92915050565b335f908152600d602052604090205461061d906201518090612718565b42101561068b576040517f08c379a000000000000000000000000000000000000000000000000000000000815260206004820152601e60248201527f4661756365743a205761697420323468206265747765656e206d696e7473000060448201526064015b60405180910390fd5b335f818152600d60205260409020429055600c546106a99190610c53565b565b5f336106b8858285610cad565b6106c3858585610d7b565b506001949350505050565b5f6106d7610e24565b905090565b5f6107136106e983610f5a565b73ffffffffffffffffffffffffffffffffffffffff85165f90815260096020526040902090610fc1565b79ffffffffffffffffffffffffffffffffffffffffffffffffffff169392505050565b6060610740611087565b65ffffffffffff166107506108d3565b65ffffffffffff161461078f576040517f6ff0714000000000000000000000000000000000000000000000000000000000815260040160405180910390fd5b5060408051808201909152601d81527f6d6f64653d626c6f636b6e756d6265722666726f6d3d64656661756c74000000602082015290565b336107d28183611091565b5050565b5f6105fa82611127565b6107e8611155565b6106a95f6111a8565b5f6105fa8261121e565b610803611155565b600c8190556040518181527f6b485e2740573a57af1fe9acd3f9a33ea4b26b8cd88c6d2daa967036d1b1c38d9060200160405180910390a150565b5f6060805f5f5f606061084f611248565b610857611275565b604080515f808252602082019092527f0f000000000000000000000000000000000000000000000000000000000000009b939a50919850469750309650945092509050565b5f6108b16108a983610f5a565b600a90610fc1565b79ffffffffffffffffffffffffffffffffffffffffffffffffffff1692915050565b5f6106d7611087565b6060600480546105669061269a565b73ffffffffffffffffffffffffffffffffffffffff81165f9081526009602052604081206108b1906112a2565b6107d282826112ef565b5f336105f4818585610d7b565b8342111561096c576040517f4683af0e00000000000000000000000000000000000000000000000000000000815260048101859052602401610682565b604080517fe48329057bfd03d55e49b547132e39cffd9c1820ad7b9d4c5307691425d15adf602082015273ffffffffffffffffffffffffffffffffffffffff88169181019190915260608101869052608081018590525f906109f2906109ea9060a00160405160208183030381529060405280519060200120611349565b858585611390565b90506109fe81876113bc565b610a088188611091565b50505050505050565b83421115610a4e576040517f6279130200000000000000000000000000000000000000000000000000000000815260048101859052602401610682565b5f7f6e71edae12b1b97f4d1f60370fef10105fa2faae0126114a169c64845d6126c9888888610aa68c73ffffffffffffffffffffffffffffffffffffffff165f90815260076020526040902080546001810190915590565b60408051602081019690965273ffffffffffffffffffffffffffffffffffffffff94851690860152929091166060840152608083015260a082015260c0810186905260e0016040516020818303038152906040528051906020012090505f610b0d82611349565b90505f610b1c82878787611390565b90508973ffffffffffffffffffffffffffffffffffffffff168173ffffffffffffffffffffffffffffffffffffffff1614610ba3576040517f4b800e4600000000000000000000000000000000000000000000000000000000815273ffffffffffffffffffffffffffffffffffffffff80831660048301528b166024820152604401610682565b610bae8a8a8a610c41565b50505050505050505050565b604080518082019091525f8082526020820152610bd78383611441565b9392505050565b610be6611155565b73ffffffffffffffffffffffffffffffffffffffff8116610c35576040517f1e4fbdf70000000000000000000000000000000000000000000000000000000081525f6004820152602401610682565b610c3e816111a8565b50565b610c4e8383836001611482565b505050565b73ffffffffffffffffffffffffffffffffffffffff8216610ca2576040517fec442f050000000000000000000000000000000000000000000000000000000081525f6004820152602401610682565b6107d25f83836115c7565b73ffffffffffffffffffffffffffffffffffffffff8381165f908152600160209081526040808320938616835292905220547fffffffffffffffffffffffffffffffffffffffffffffffffffffffffffffffff811015610d755781811015610d67576040517ffb8f41b200000000000000000000000000000000000000000000000000000000815273ffffffffffffffffffffffffffffffffffffffff841660048201526024810182905260448101839052606401610682565b610d7584848484035f611482565b50505050565b73ffffffffffffffffffffffffffffffffffffffff8316610dca576040517f96c6fd1e0000000000000000000000000000000000000000000000000000000081525f6004820152602401610682565b73ffffffffffffffffffffffffffffffffffffffff8216610e19576040517fec442f050000000000000000000000000000000000000000000000000000000081525f6004820152602401610682565b610c4e8383836115c7565b5f3073ffffffffffffffffffffffffffffffffffffffff7f000000000000000000000000000000000000000000000000000000000000000016148015610e8957507f000000000000000000000000000000000000000000000000000000000000000046145b15610eb357507f000000000000000000000000000000000000000000000000000000000000000090565b6106d7604080517f8b73c3c69bb8fe3d512ecc4cf759cc79239f7b179b0ffacaa9a75d522b39400f60208201527f0000000000000000000000000000000000000000000000000000000000000000918101919091527f000000000000000000000000000000000000000000000000000000000000000060608201524660808201523060a08201525f9060c00160405160208183030381529060405280519060200120905090565b5f5f610f646108d3565b90508065ffffffffffff168310610fb8576040517fecd3f81e0000000000000000000000000000000000000000000000000000000081526004810184905265ffffffffffff82166024820152604401610682565b610bd7836115d2565b81545f908181600581111561101d575f610fda84611621565b610fe4908561272b565b5f8881526020902090915081015465ffffffffffff908116908716101561100d5780915061101b565b611018816001612718565b92505b505b5f61102a87878585611786565b9050801561107a5761104e8761104160018461272b565b5f91825260209091200190565b546601000000000000900479ffffffffffffffffffffffffffffffffffffffffffffffffffff1661107c565b5f5b979650505050505050565b5f6106d7436115d2565b73ffffffffffffffffffffffffffffffffffffffff8281165f8181526008602052604080822080548686167fffffffffffffffffffffffff0000000000000000000000000000000000000000821681179092559151919094169392849290917f3134e8a2e6d97e929a7e54011ea5485d7d196dd5f0ba4d4ef95803e8e3fc257f9190a4610c4e8183611122866117e5565b61180f565b73ffffffffffffffffffffffffffffffffffffffff81165f908152600960205260408120546105fa90611a2c565b600b5473ffffffffffffffffffffffffffffffffffffffff1633146106a9576040517f118cdaa7000000000000000000000000000000000000000000000000000000008152336004820152602401610682565b600b805473ffffffffffffffffffffffffffffffffffffffff8381167fffffffffffffffffffffffff0000000000000000000000000000000000000000831681179093556040519116919082907f8be0079c531659141344cd1fd0a4f28419497f9722a3daafe3b4186f6b6457e0905f90a35050565b73ffffffffffffffffffffffffffffffffffffffff81165f908152600760205260408120546105fa565b60606106d77f00000000000000000000000000000000000000000000000000000000000000006005611a75565b60606106d77f00000000000000000000000000000000000000000000000000000000000000006006611a75565b80545f9080156112e7576112bb8361104160018461272b565b546601000000000000900479ffffffffffffffffffffffffffffffffffffffffffffffffffff16610bd7565b5f9392505050565b73ffffffffffffffffffffffffffffffffffffffff821661133e576040517f96c6fd1e0000000000000000000000000000000000000000000000000000000081525f6004820152602401610682565b6107d2825f836115c7565b5f6105fa611355610e24565b836040517f19010000000000000000000000000000000000000000000000000000000000008152600281019290925260228201526042902090565b5f5f5f5f6113a088888888611b1e565b9250925092506113b08282611c11565b50909695505050505050565b73ffffffffffffffffffffffffffffffffffffffff82165f908152600760205260409020805460018101909155818114610c4e576040517f752d88c000000000000000000000000000000000000000000000000000000000815273ffffffffffffffffffffffffffffffffffffffff8416600482015260248101829052604401610682565b604080518082019091525f808252602082015273ffffffffffffffffffffffffffffffffffffffff83165f908152600960205260409020610bd79083611d14565b73ffffffffffffffffffffffffffffffffffffffff84166114d1576040517fe602df050000000000000000000000000000000000000000000000000000000081525f6004820152602401610682565b73ffffffffffffffffffffffffffffffffffffffff8316611520576040517f94280d620000000000000000000000000000000000000000000000000000000081525f6004820152602401610682565b73ffffffffffffffffffffffffffffffffffffffff8085165f9081526001602090815260408083209387168352929052208290558015610d75578273ffffffffffffffffffffffffffffffffffffffff168473ffffffffffffffffffffffffffffffffffffffff167f8c5be1e5ebec7d5bd14f71427d1e84f3dd0314c0f7b2291e5b200ac8c7c3b925846040516115b991815260200190565b60405180910390a350505050565b610c4e838383611d97565b5f65ffffffffffff82111561161d576040517f6dfcc6500000000000000000000000000000000000000000000000000000000081526030600482015260248101839052604401610682565b5090565b5f6001821161162e575090565b81600170010000000000000000000000000000000082106116545760809190911c9060401b5b68010000000000000000821061166f5760409190911c9060201b5b64010000000082106116865760209190911c9060101b5b62010000821061169b5760109190911c9060081b5b61010082106116af5760089190911c9060041b5b601082106116c25760049190911c9060021b5b600482106116ce5760011b5b600302600190811c908185816116e6576116e661273e565b048201901c905060018185816116fe576116fe61273e565b048201901c905060018185816117165761171661273e565b048201901c9050600181858161172e5761172e61273e565b048201901c905060018185816117465761174661273e565b048201901c9050600181858161175e5761175e61273e565b048201901c905061177d8185816117775761177761273e565b04821190565b90039392505050565b5f5b818310156117dd575f61179b8484611e36565b5f8781526020902090915065ffffffffffff86169082015465ffffffffffff1611156117c9578092506117d7565b6117d4816001612718565b93505b50611788565b509392505050565b73ffffffffffffffffffffffffffffffffffffffff81165f908152602081905260408120546105fa565b8173ffffffffffffffffffffffffffffffffffffffff168373ffffffffffffffffffffffffffffffffffffffff161415801561184a57505f81115b15610c4e5773ffffffffffffffffffffffffffffffffffffffff83161561193e5773ffffffffffffffffffffffffffffffffffffffff83165f90815260096020526040812081906118a690611e506118a186611e5b565b611eba565b79ffffffffffffffffffffffffffffffffffffffffffffffffffff16915079ffffffffffffffffffffffffffffffffffffffffffffffffffff1691508473ffffffffffffffffffffffffffffffffffffffff167fdec2bacdd2f05b59de34da9b523dff8be42e5e38e818c82fdb0bae774387a7248383604051611933929190918252602082015260400190565b60405180910390a250505b73ffffffffffffffffffffffffffffffffffffffff821615610c4e5773ffffffffffffffffffffffffffffffffffffffff82165f908152600960205260408120819061199090611ef26118a186611e5b565b79ffffffffffffffffffffffffffffffffffffffffffffffffffff16915079ffffffffffffffffffffffffffffffffffffffffffffffffffff1691508373ffffffffffffffffffffffffffffffffffffffff167fdec2bacdd2f05b59de34da9b523dff8be42e5e38e818c82fdb0bae774387a7248383604051611a1d929190918252602082015260400190565b60405180910390a25050505050565b5f63ffffffff82111561161d576040517f6dfcc6500000000000000000000000000000000000000000000000000000000081526020600482015260248101839052604401610682565b606060ff8314611a8f57611a8883611efd565b90506105fa565b818054611a9b9061269a565b80601f0160208091040260200160405190810160405280929190818152602001828054611ac79061269a565b8015611b125780601f10611ae957610100808354040283529160200191611b12565b820191905f5260205f20905b815481529060010190602001808311611af557829003601f168201915b505050505090506105fa565b5f80807f7fffffffffffffffffffffffffffffff5d576e7357a4501ddfe92f46681b20a0841115611b5757505f91506003905082611c07565b604080515f808252602082018084528a905260ff891692820192909252606081018790526080810186905260019060a0016020604051602081039080840390855afa158015611ba8573d5f5f3e3d5ffd5b50506040517fffffffffffffffffffffffffffffffffffffffffffffffffffffffffffffffe0015191505073ffffffffffffffffffffffffffffffffffffffff8116611bfe57505f925060019150829050611c07565b92505f91508190505b9450945094915050565b5f826003811115611c2457611c2461276b565b03611c2d575050565b6001826003811115611c4157611c4161276b565b03611c78576040517ff645eedf00000000000000000000000000000000000000000000000000000000815260040160405180910390fd5b6002826003811115611c8c57611c8c61276b565b03611cc6576040517ffce698f700000000000000000000000000000000000000000000000000000000815260048101829052602401610682565b6003826003811115611cda57611cda61276b565b036107d2576040517fd78bce0c00000000000000000000000000000000000000000000000000000000815260048101829052602401610682565b604080518082019091525f8082526020820152825f018263ffffffff1681548110611d4157611d41612798565b5f9182526020918290206040805180820190915291015465ffffffffffff811682526601000000000000900479ffffffffffffffffffffffffffffffffffffffffffffffffffff16918101919091529392505050565b611da2838383611f3a565b73ffffffffffffffffffffffffffffffffffffffff8316611e2b575f611dc760025490565b905079ffffffffffffffffffffffffffffffffffffffffffffffffffff80821115611e28576040517f1cb15d260000000000000000000000000000000000000000000000000000000081526004810183905260248101829052604401610682565b50505b610c4e8383836120e1565b5f611e4460028484186127c5565b610bd790848416612718565b5f610bd782846127fd565b5f79ffffffffffffffffffffffffffffffffffffffffffffffffffff82111561161d576040517f6dfcc65000000000000000000000000000000000000000000000000000000000815260d0600482015260248101839052604401610682565b5f5f611ee5611ec76108d3565b611edd611ed3886112a2565b868863ffffffff16565b87919061217d565b915091505b935093915050565b5f610bd7828461282f565b60605f611f098361218a565b6040805160208082528183019092529192505f91906020820181803683375050509182525060208101929092525090565b73ffffffffffffffffffffffffffffffffffffffff8316611f71578060025f828254611f669190612718565b909155506120219050565b73ffffffffffffffffffffffffffffffffffffffff83165f9081526020819052604090205481811015611ff6576040517fe450d38c00000000000000000000000000000000000000000000000000000000815273ffffffffffffffffffffffffffffffffffffffff851660048201526024810182905260448101839052606401610682565b73ffffffffffffffffffffffffffffffffffffffff84165f9081526020819052604090209082900390555b73ffffffffffffffffffffffffffffffffffffffff821661204a57600280548290039055612075565b73ffffffffffffffffffffffffffffffffffffffff82165f9081526020819052604090208054820190555b8173ffffffffffffffffffffffffffffffffffffffff168373ffffffffffffffffffffffffffffffffffffffff167fddf252ad1be2c89b69c2b068fc378daa952ba7f163c4a11628f55a4df523b3ef836040516120d491815260200190565b60405180910390a3505050565b73ffffffffffffffffffffffffffffffffffffffff83166121105761210d600a611ef26118a184611e5b565b50505b73ffffffffffffffffffffffffffffffffffffffff821661213f5761213c600a611e506118a184611e5b565b50505b73ffffffffffffffffffffffffffffffffffffffff8381165f90815260086020526040808220548584168352912054610c4e9291821691168361180f565b5f80611ee58585856121ca565b5f60ff8216601f8111156105fa576040517fb3512b0c00000000000000000000000000000000000000000000000000000000815260040160405180910390fd5b82545f908190801561231b575f6121e68761104160018561272b565b805490915065ffffffffffff808216916601000000000000900479ffffffffffffffffffffffffffffffffffffffffffffffffffff16908816821115612258576040517f2520601d00000000000000000000000000000000000000000000000000000000815260040160405180910390fd5b8765ffffffffffff168265ffffffffffff16036122a757825465ffffffffffff16660100000000000079ffffffffffffffffffffffffffffffffffffffffffffffffffff89160217835561230d565b6040805180820190915265ffffffffffff808a16825279ffffffffffffffffffffffffffffffffffffffffffffffffffff808a1660208085019182528d54600181018f555f8f815291909120945191519092166601000000000000029216919091179101555b9450859350611eea92505050565b50506040805180820190915265ffffffffffff808516825279ffffffffffffffffffffffffffffffffffffffffffffffffffff80851660208085019182528854600181018a555f8a8152918220955192519093166601000000000000029190931617920191909155905081611eea565b5f81518084528060208401602086015e5f6020828601015260207fffffffffffffffffffffffffffffffffffffffffffffffffffffffffffffffe0601f83011685010191505092915050565b602081525f610bd7602083018461238b565b803573ffffffffffffffffffffffffffffffffffffffff8116811461240c575f5ffd5b919050565b5f5f60408385031215612422575f5ffd5b61242b836123e9565b946020939093013593505050565b5f5f5f6060848603121561244b575f5ffd5b612454846123e9565b9250612462602085016123e9565b929592945050506040919091013590565b5f60208284031215612483575f5ffd5b610bd7826123e9565b5f6020828403121561249c575f5ffd5b5035919050565b7fff000000000000000000000000000000000000000000000000000000000000008816815260e060208201525f6124dd60e083018961238b565b82810360408401526124ef818961238b565b6060840188905273ffffffffffffffffffffffffffffffffffffffff8716608085015260a0840186905283810360c0850152845180825260208087019350909101905f5b81811015612551578351835260209384019390920191600101612533565b50909b9a5050505050505050505050565b803560ff8116811461240c575f5ffd5b5f5f5f5f5f5f60c08789031215612587575f5ffd5b612590876123e9565b955060208701359450604087013593506125ac60608801612562565b9598949750929560808101359460a0909101359350915050565b5f5f5f5f5f5f5f60e0888a0312156125dc575f5ffd5b6125e5886123e9565b96506125f3602089016123e9565b9550604088013594506060880135935061260f60808901612562565b9699959850939692959460a0840135945060c09093013592915050565b5f5f6040838503121561263d575f5ffd5b612646836123e9565b9150612654602084016123e9565b90509250929050565b5f5f6040838503121561266e575f5ffd5b612677836123e9565b9150602083013563ffffffff8116811461268f575f5ffd5b809150509250929050565b600181811c908216806126ae57607f821691505b6020821081036126e5577f4e487b71000000000000000000000000000000000000000000000000000000005f52602260045260245ffd5b50919050565b7f4e487b71000000000000000000000000000000000000000000000000000000005f52601160045260245ffd5b808201808211156105fa576105fa6126eb565b818103818111156105fa576105fa6126eb565b7f4e487b71000000000000000000000000000000000000000000000000000000005f52601260045260245ffd5b7f4e487b71000000000000000000000000000000000000000000000000000000005f52602160045260245ffd5b7f4e487b71000000000000000000000000000000000000000000000000000000005f52603260045260245ffd5b5f826127f8577f4e487b71000000000000000000000000000000000000000000000000000000005f52601260045260245ffd5b500490565b79ffffffffffffffffffffffffffffffffffffffffffffffffffff82811682821603908111156105fa576105fa6126eb565b79ffffffffffffffffffffffffffffffffffffffffffffffffffff81811683821601908111156105fa576105fa6126eb56fea2646970667358221220f09a67f4311ed01393d15fdb84513a2bb6fd1e1975c003020e1d5fb3cfa791c264736f6c634300081e0033","linkReferences":{}},"methodIdentifiers":{"CLOCK_MODE()":"4bf5d7e9","DOMAIN_SEPARATOR()":"3644e515","FAUCET_INTERVAL()":"6df62cef","allowance(address,address)":"dd62ed3e","approve(address,uint256)":"095ea7b3","balanceOf(address)":"70a08231","burn(address,uint256)":"9dc29fac","checkpoints(address,uint32)":"f1127ed8","clock()":"91ddadf4","decimals()":"313ce567","delegate(address)":"5c19a95c","delegateBySig(address,uint256,uint256,uint8,bytes32,bytes32)":"c3cda520","delegates(address)":"587cde1e","eip712Domain()":"84b0196e","faucetAmount()":"9c281430","getPastTotalSupply(uint256)":"8e539e8c","getPastVotes(address,uint256)":"3a46b1a8","getVotes(address)":"9ab24eb0","lastMint(address)":"adc20b1c","mint()":"1249c58b","name()":"06fdde03","nonces(address)":"7ecebe00","numCheckpoints(address)":"6fcfff45","owner()":"8da5cb5b","permit(address,address,uint256,uint256,uint8,bytes32,bytes32)":"d505accf","renounceOwnership()":"715018a6","setFaucetAmount(uint256)":"81d2fd9c","symbol()":"95d89b41","totalSupply()":"18160ddd","transfer(address,uint256)":"a9059cbb","transferFrom(address,address,uint256)":"23b872dd","transferOwnership(address)":"f2fde38b"},"id":100}