{"abi":[{"type":"constructor","inputs":[],"stateMutability":"nonpayable"},{"type":"function","name":"ADMIN_ROLE","inputs":[],"outputs":[{"name":"","type":"bytes32","internalType":"bytes32"}],"stateMutability":"view"},{"type":"function","name":"BPS_DIVISOR","inputs":[],"outputs":[{"name":"","type":"uint256","internalType":"uint256"}],"stateMutability":"view"},{"type":"function","name":"DEFAULT_ADMIN_ROLE","inputs":[],"outputs":[{"name":"","type":"bytes32","internalType":"bytes32"}],"stateMutability":"view"},{"type":"function","name":"MAX_FEE_BPS","inputs":[],"outputs":[{"name":"","type":"uint256","internalType":"uint256"}],"stateMutability":"view"},{"type":"function","name":"UPGRADE_INTERFACE_VERSION","inputs":[],"outputs":[{"name":"","type":"string","internalType":"string"}],"stateMutability":"view"},{"type":"function","name":"allowedDstChainIds","inputs":[{"name":"","type":"uint256","internalType":"uint256"}],"outputs":[{"name":"","type":"bool","internalType":"bool"}],"stateMutability":"view"},{"type":"function","name":"blockDestinationChainId","inputs":[{"name":"chainId","type":"uint256","internalType":"uint256"}],"outputs":[],"stateMutability":"nonpayable"},{"type":"function","name":"blsValidatorUpdateParamsToBytes","inputs":[{"name":"blsValidator","type":"address","internalType":"address"},{"name":"nonce","type":"uint256","internalType":"uint256"}],"outputs":[{"name":"","type":"bytes","internalType":"bytes"},{"name":"","type":"bytes","internalType":"bytes"}],"stateMutability":"view"},{"type":"function","name":"buildSwapRequestParameters","inputs":[{"name":"tokenIn","type":"address","internalType":"address"},{"name":"tokenOut","type":"address","internalType":"address"},{"name":"amountOut","type":"uint256","internalType":"uint256"},{"name":"verificationFeeAmount","type":"uint256","internalType":"uint256"},{"name":"solverFeeAmount","type":"uint256","internalType":"uint256"},{"name":"dstChainId","type":"uint256","internalType":"uint256"},{"name":"recipient","type":"address","internalType":"address"},{"name":"nonce","type":"uint256","internalType":"uint256"}],"outputs":[{"name":"swapRequestParams","type":"tuple","internalType":"struct IRouter.SwapRequestParameters","components":[{"name":"sender","type":"address","internalType":"address"},{"name":"recipient","type":"address","internalType":"address"},{"name":"tokenIn","type":"address","internalType":"address"},{"name":"tokenOut","type":"address","internalType":"address"},{"name":"amountOut","type":"uint256","internalType":"uint256"},{"name":"srcChainId","type":"uint256","internalType":"uint256"},{"name":"dstChainId","type":"uint256","internalType":"uint256"},{"name":"verificationFee","type":"uint256","internalType":"uint256"},{"name":"solverFee","type":"uint256","internalType":"uint256"},{"name":"nonce","type":"uint256","internalType":"uint256"},{"name":"executed","type":"bool","internalType":"bool"},{"name":"requestedAt","type":"uint256","internalType":"uint256"}]}],"stateMutability":"view"},{"type":"function","name":"cancelUpgrade","inputs":[{"name":"signature","type":"bytes","internalType":"bytes"}],"outputs":[],"stateMutability":"nonpayable"},{"type":"function","name":"contractUpgradeBlsValidator","inputs":[],"outputs":[{"name":"","type":"address","internalType":"contract ISignatureScheme"}],"stateMutability":"view"},{"type":"function","name":"contractUpgradeParamsToBytes","inputs":[{"name":"action","type":"string","internalType":"string"},{"name":"pendingImplementation","type":"address","internalType":"address"},{"name":"newImplementation","type":"address","internalType":"address"},{"name":"upgradeCalldata","type":"bytes","internalType":"bytes"},{"name":"upgradeTime","type":"uint256","internalType":"uint256"},{"name":"nonce","type":"uint256","internalType":"uint256"}],"outputs":[{"name":"","type":"bytes","internalType":"bytes"},{"name":"","type":"bytes","internalType":"bytes"}],"stateMutability":"view"},{"type":"function","name":"currentNonce","inputs":[],"outputs":[{"name":"","type":"uint256","internalType":"uint256"}],"stateMutability":"view"},{"type":"function","name":"executeUpgrade","inputs":[],"outputs":[],"stateMutability":"nonpayable"},{"type":"function","name":"getAllowedDstChainId","inputs":[{"name":"chainId","type":"uint256","internalType":"uint256"}],"outputs":[{"name":"","type":"bool","internalType":"bool"}],"stateMutability":"view"},{"type":"function","name":"getChainID","inputs":[],"outputs":[{"name":"","type":"uint256","internalType":"uint256"}],"stateMutability":"view"},{"type":"function","name":"getChainId","inputs":[],"outputs":[{"name":"chainId","type":"uint256","internalType":"uint256"}],"stateMutability":"view"},{"type":"function","name":"getContractUpgradeBlsValidator","inputs":[],"outputs":[{"name":"","type":"address","internalType":"address"}],"stateMutability":"view"},{"type":"function","name":"getFulfilledSolverRefunds","inputs":[],"outputs":[{"name":"","type":"bytes32[]","internalType":"bytes32[]"}],"stateMutability":"view"},{"type":"function","name":"getFulfilledTransfers","inputs":[],"outputs":[{"name":"","type":"bytes32[]","internalType":"bytes32[]"}],"stateMutability":"view"},{"type":"function","name":"getMinimumContractUpgradeDelay","inputs":[],"outputs":[{"name":"","type":"uint256","internalType":"uint256"}],"stateMutability":"view"},{"type":"function","name":"getRoleAdmin","inputs":[{"name":"role","type":"bytes32","internalType":"bytes32"}],"outputs":[{"name":"","type":"bytes32","internalType":"bytes32"}],"stateMutability":"view"},{"type":"function","name":"getRoleMember","inputs":[{"name":"role","type":"bytes32","internalType":"bytes32"},{"name":"index","type":"uint256","internalType":"uint256"}],"outputs":[{"name":"","type":"address","internalType":"address"}],"stateMutability":"view"},{"type":"function","name":"getRoleMemberCount","inputs":[{"name":"role","type":"bytes32","internalType":"bytes32"}],"outputs":[{"name":"","type":"uint256","internalType":"uint256"}],"stateMutability":"view"},{"type":"function","name":"getRoleMembers","inputs":[{"name":"role","type":"bytes32","internalType":"bytes32"}],"outputs":[{"name":"","type":"address[]","internalType":"address[]"}],"stateMutability":"view"},{"type":"function","name":"getSwapRequestBlsValidator","inputs":[],"outputs":[{"name":"","type":"address","internalType":"address"}],"stateMutability":"view"},{"type":"function","name":"getSwapRequestId","inputs":[{"name":"p","type":"tuple","internalType":"struct IRouter.SwapRequestParameters","components":[{"name":"sender","type":"address","internalType":"address"},{"name":"recipient","type":"address","internalType":"address"},{"name":"tokenIn","type":"address","internalType":"address"},{"name":"tokenOut","type":"address","internalType":"address"},{"name":"amountOut","type":"uint256","internalType":"uint256"},{"name":"srcChainId","type":"uint256","internalType":"uint256"},{"name":"dstChainId","type":"uint256","internalType":"uint256"},{"name":"verificationFee","type":"uint256","internalType":"uint256"},{"name":"solverFee","type":"uint256","internalType":"uint256"},{"name":"nonce","type":"uint256","internalType":"uint256"},{"name":"executed","type":"bool","internalType":"bool"},{"name":"requestedAt","type":"uint256","internalType":"uint256"}]}],"outputs":[{"name":"","type":"bytes32","internalType":"bytes32"}],"stateMutability":"view"},{"type":"function","name":"getSwapRequestParameters","inputs":[{"name":"requestId","type":"bytes32","internalType":"bytes32"}],"outputs":[{"name":"swapRequestParams","type":"tuple","internalType":"struct IRouter.SwapRequestParameters","components":[{"name":"sender","type":"address","internalType":"address"},{"name":"recipient","type":"address","internalType":"address"},{"name":"tokenIn","type":"address","internalType":"address"},{"name":"tokenOut","type":"address","internalType":"address"},{"name":"amountOut","type":"uint256","internalType":"uint256"},{"name":"srcChainId","type":"uint256","internalType":"uint256"},{"name":"dstChainId","type":"uint256","internalType":"uint256"},{"name":"verificationFee","type":"uint256","internalType":"uint256"},{"name":"solverFee","type":"uint256","internalType":"uint256"},{"name":"nonce","type":"uint256","internalType":"uint256"},{"name":"executed","type":"bool","internalType":"bool"},{"name":"requestedAt","type":"uint256","internalType":"uint256"}]}],"stateMutability":"view"},{"type":"function","name":"getSwapRequestReceipt","inputs":[{"name":"_requestId","type":"bytes32","internalType":"bytes32"}],"outputs":[{"name":"requestId","type":"bytes32","internalType":"bytes32"},{"name":"srcChainId","type":"uint256","internalType":"uint256"},{"name":"dstChainId","type":"uint256","internalType":"uint256"},{"name":"token","type":"address","internalType":"address"},{"name":"fulfilled","type":"bool","internalType":"bool"},{"name":"solver","type":"address","internalType":"address"},{"name":"recipient","type":"address","internalType":"address"},{"name":"amountOut","type":"uint256","internalType":"uint256"},{"name":"fulfilledAt","type":"uint256","internalType":"uint256"}],"stateMutability":"view"},{"type":"function","name":"getTokenMapping","inputs":[{"name":"srcToken","type":"address","internalType":"address"},{"name":"dstChainId","type":"uint256","internalType":"uint256"}],"outputs":[{"name":"","type":"address[]","internalType":"address[]"}],"stateMutability":"view"},{"type":"function","name":"getTotalVerificationFeeBalance","inputs":[{"name":"token","type":"address","internalType":"address"}],"outputs":[{"name":"","type":"uint256","internalType":"uint256"}],"stateMutability":"view"},{"type":"function","name":"getUnfulfilledSolverRefunds","inputs":[],"outputs":[{"name":"","type":"bytes32[]","internalType":"bytes32[]"}],"stateMutability":"view"},{"type":"function","name":"getVerificationFeeAmount","inputs":[{"name":"amountToSwap","type":"uint256","internalType":"uint256"}],"outputs":[{"name":"","type":"uint256","internalType":"uint256"},{"name":"","type":"uint256","internalType":"uint256"}],"stateMutability":"view"},{"type":"function","name":"getVerificationFeeBps","inputs":[],"outputs":[{"name":"","type":"uint256","internalType":"uint256"}],"stateMutability":"view"},{"type":"function","name":"getVersion","inputs":[],"outputs":[{"name":"","type":"string","internalType":"string"}],"stateMutability":"pure"},{"type":"function","name":"grantRole","inputs":[{"name":"role","type":"bytes32","internalType":"bytes32"},{"name":"account","type":"address","internalType":"address"}],"outputs":[],"stateMutability":"nonpayable"},{"type":"function","name":"hasRole","inputs":[{"name":"role","type":"bytes32","internalType":"bytes32"},{"name":"account","type":"address","internalType":"address"}],"outputs":[{"name":"","type":"bool","internalType":"bool"}],"stateMutability":"view"},{"type":"function","name":"initialize","inputs":[{"name":"_owner","type":"address","internalType":"address"},{"name":"_swapRequestBlsValidator","type":"address","internalType":"address"},{"name":"_contractUpgradeBlsValidator","type":"address","internalType":"address"},{"name":"_verificationFeeBps","type":"uint256","internalType":"uint256"}],"outputs":[],"stateMutability":"nonpayable"},{"type":"function","name":"isDstTokenMapped","inputs":[{"name":"srcToken","type":"address","internalType":"address"},{"name":"dstChainId","type":"uint256","internalType":"uint256"},{"name":"dstToken","type":"address","internalType":"address"}],"outputs":[{"name":"","type":"bool","internalType":"bool"}],"stateMutability":"view"},{"type":"function","name":"minimumContractUpgradeDelay","inputs":[],"outputs":[{"name":"","type":"uint256","internalType":"uint256"}],"stateMutability":"view"},{"type":"function","name":"nonceToRequester","inputs":[{"name":"","type":"uint256","internalType":"uint256"}],"outputs":[{"name":"","type":"address","internalType":"address"}],"stateMutability":"view"},{"type":"function","name":"permitDestinationChainId","inputs":[{"name":"chainId","type":"uint256","internalType":"uint256"}],"outputs":[],"stateMutability":"nonpayable"},{"type":"function","name":"proxiableUUID","inputs":[],"outputs":[{"name":"","type":"bytes32","internalType":"bytes32"}],"stateMutability":"view"},{"type":"function","name":"rebalanceSolver","inputs":[{"name":"solver","type":"address","internalType":"address"},{"name":"requestId","type":"bytes32","internalType":"bytes32"},{"name":"signature","type":"bytes","internalType":"bytes"}],"outputs":[],"stateMutability":"nonpayable"},{"type":"function","name":"relayTokens","inputs":[{"name":"token","type":"address","internalType":"address"},{"name":"recipient","type":"address","internalType":"address"},{"name":"amountOut","type":"uint256","internalType":"uint256"},{"name":"requestId","type":"bytes32","internalType":"bytes32"},{"name":"srcChainId","type":"uint256","internalType":"uint256"}],"outputs":[],"stateMutability":"nonpayable"},{"type":"function","name":"removeTokenMapping","inputs":[{"name":"dstChainId","type":"uint256","internalType":"uint256"},{"name":"dstToken","type":"address","internalType":"address"},{"name":"srcToken","type":"address","internalType":"address"}],"outputs":[],"stateMutability":"nonpayable"},{"type":"function","name":"renounceRole","inputs":[{"name":"role","type":"bytes32","internalType":"bytes32"},{"name":"callerConfirmation","type":"address","internalType":"address"}],"outputs":[],"stateMutability":"nonpayable"},{"type":"function","name":"requestCrossChainSwap","inputs":[{"name":"tokenIn","type":"address","internalType":"address"},{"name":"tokenOut","type":"address","internalType":"address"},{"name":"amount","type":"uint256","internalType":"uint256"},{"name":"solverFee","type":"uint256","internalType":"uint256"},{"name":"dstChainId","type":"uint256","internalType":"uint256"},{"name":"recipient","type":"address","internalType":"address"}],"outputs":[{"name":"requestId","type":"bytes32","internalType":"bytes32"}],"stateMutability":"nonpayable"},{"type":"function","name":"revokeRole","inputs":[{"name":"role","type":"bytes32","internalType":"bytes32"},{"name":"account","type":"address","internalType":"address"}],"outputs":[],"stateMutability":"nonpayable"},{"type":"function","name":"scheduleUpgrade","inputs":[{"name":"newImplementation","type":"address","internalType":"address"},{"name":"upgradeCalldata","type":"bytes","internalType":"bytes"},{"name":"upgradeTime","type":"uint256","internalType":"uint256"},{"name":"signature","type":"bytes","internalType":"bytes"}],"outputs":[],"stateMutability":"nonpayable"},{"type":"function","name":"scheduledImplementation","inputs":[],"outputs":[{"name":"","type":"address","internalType":"address"}],"stateMutability":"view"},{"type":"function","name":"scheduledTimestampForUpgrade","inputs":[],"outputs":[{"name":"","type":"uint256","internalType":"uint256"}],"stateMutability":"view"},{"type":"function","name":"setContractUpgradeBlsValidator","inputs":[{"name":"_contractUpgradeBlsValidator","type":"address","internalType":"address"},{"name":"signature","type":"bytes","internalType":"bytes"}],"outputs":[],"stateMutability":"nonpayable"},{"type":"function","name":"setMinimumContractUpgradeDelay","inputs":[{"name":"_minimumContractUpgradeDelay","type":"uint256","internalType":"uint256"}],"outputs":[],"stateMutability":"nonpayable"},{"type":"function","name":"setSwapRequestBlsValidator","inputs":[{"name":"_swapRequestBlsValidator","type":"address","internalType":"address"},{"name":"signature","type":"bytes","internalType":"bytes"}],"outputs":[],"stateMutability":"nonpayable"},{"type":"function","name":"setTokenMapping","inputs":[{"name":"dstChainId","type":"uint256","internalType":"uint256"},{"name":"dstToken","type":"address","internalType":"address"},{"name":"srcToken","type":"address","internalType":"address"}],"outputs":[],"stateMutability":"nonpayable"},{"type":"function","name":"setVerificationFeeBps","inputs":[{"name":"_verificationFeeBps","type":"uint256","internalType":"uint256"}],"outputs":[],"stateMutability":"nonpayable"},{"type":"function","name":"supportsInterface","inputs":[{"name":"interfaceId","type":"bytes4","internalType":"bytes4"}],"outputs":[{"name":"","type":"bool","internalType":"bool"}],"stateMutability":"view"},{"type":"function","name":"swapRequestBlsValidator","inputs":[],"outputs":[{"name":"","type":"address","internalType":"contract ISignatureScheme"}],"stateMutability":"view"},{"type":"function","name":"swapRequestParameters","inputs":[{"name":"","type":"bytes32","internalType":"bytes32"}],"outputs":[{"name":"sender","type":"address","internalType":"address"},{"name":"recipient","type":"address","internalType":"address"},{"name":"tokenIn","type":"address","internalType":"address"},{"name":"tokenOut","type":"address","internalType":"address"},{"name":"amountOut","type":"uint256","internalType":"uint256"},{"name":"srcChainId","type":"uint256","internalType":"uint256"},{"name":"dstChainId","type":"uint256","internalType":"uint256"},{"name":"verificationFee","type":"uint256","internalType":"uint256"},{"name":"solverFee","type":"uint256","internalType":"uint256"},{"name":"nonce","type":"uint256","internalType":"uint256"},{"name":"executed","type":"bool","internalType":"bool"},{"name":"requestedAt","type":"uint256","internalType":"uint256"}],"stateMutability":"view"},{"type":"function","name":"swapRequestParametersToBytes","inputs":[{"name":"requestId","type":"bytes32","internalType":"bytes32"},{"name":"solver","type":"address","internalType":"address"}],"outputs":[{"name":"message","type":"bytes","internalType":"bytes"},{"name":"messageAsG1Bytes","type":"bytes","internalType":"bytes"}],"stateMutability":"view"},{"type":"function","name":"swapRequestReceipts","inputs":[{"name":"","type":"bytes32","internalType":"bytes32"}],"outputs":[{"name":"requestId","type":"bytes32","internalType":"bytes32"},{"name":"srcChainId","type":"uint256","internalType":"uint256"},{"name":"dstChainId","type":"uint256","internalType":"uint256"},{"name":"token","type":"address","internalType":"address"},{"name":"fulfilled","type":"bool","internalType":"bool"},{"name":"solver","type":"address","internalType":"address"},{"name":"recipient","type":"address","internalType":"address"},{"name":"amountOut","type":"uint256","internalType":"uint256"},{"name":"fulfilledAt","type":"uint256","internalType":"uint256"}],"stateMutability":"view"},{"type":"function","name":"totalVerificationFeeBalance","inputs":[{"name":"","type":"address","internalType":"address"}],"outputs":[{"name":"","type":"uint256","internalType":"uint256"}],"stateMutability":"view"},{"type":"function","name":"updateSolverFeesIfUnfulfilled","inputs":[{"name":"requestId","type":"bytes32","internalType":"bytes32"},{"name":"newFee","type":"uint256","internalType":"uint256"}],"outputs":[],"stateMutability":"nonpayable"},{"type":"function","name":"upgradeToAndCall","inputs":[{"name":"newImplementation","type":"address","internalType":"address"},{"name":"data","type":"bytes","internalType":"bytes"}],"outputs":[],"stateMutability":"payable"},{"type":"function","name":"verificationFeeBps","inputs":[],"outputs":[{"name":"","type":"uint256","internalType":"uint256"}],"stateMutability":"view"},{"type":"function","name":"withdrawVerificationFee","inputs":[{"name":"token","type":"address","internalType":"address"},{"name":"to","type":"address","internalType":"address"}],"outputs":[],"stateMutability":"nonpayable"},{"type":"event","name":"BLSValidatorUpdated","inputs":[{"name":"blsValidator","type":"address","indexed":true,"internalType":"address"}],"anonymous":false},{"type":"event","name":"ContractUpgradeBLSValidatorUpdated","inputs":[{"name":"contractUpgradeBlsValidator","type":"address","indexed":true,"internalType":"address"}],"anonymous":false},{"type":"event","name":"DestinationChainIdBlocked","inputs":[{"name":"chainId","type":"uint256","indexed":false,"internalType":"uint256"}],"anonymous":false},{"type":"event","name":"DestinationChainIdPermitted","inputs":[{"name":"chainId","type":"uint256","indexed":false,"internalType":"uint256"}],"anonymous":false},{"type":"event","name":"Initialized","inputs":[{"name":"version","type":"uint64","indexed":false,"internalType":"uint64"}],"anonymous":false},{"type":"event","name":"MinimumContractUpgradeDelayUpdated","inputs":[{"name":"newDelay","type":"uint256","indexed":false,"internalType":"uint256"}],"anonymous":false},{"type":"event","name":"RoleAdminChanged","inputs":[{"name":"role","type":"bytes32","indexed":true,"internalType":"bytes32"},{"name":"previousAdminRole","type":"bytes32","indexed":true,"internalType":"bytes32"},{"name":"newAdminRole","type":"bytes32","indexed":true,"internalType":"bytes32"}],"anonymous":false},{"type":"event","name":"RoleGranted","inputs":[{"name":"role","type":"bytes32","indexed":true,"internalType":"bytes32"},{"name":"account","type":"address","indexed":true,"internalType":"address"},{"name":"sender","type":"address","indexed":true,"internalType":"address"}],"anonymous":false},{"type":"event","name":"RoleRevoked","inputs":[{"name":"role","type":"bytes32","indexed":true,"internalType":"bytes32"},{"name":"account","type":"address","indexed":true,"internalType":"address"},{"name":"sender","type":"address","indexed":true,"internalType":"address"}],"anonymous":false},{"type":"event","name":"SolverPayoutFulfilled","inputs":[{"name":"requestId","type":"bytes32","indexed":true,"internalType":"bytes32"}],"anonymous":false},{"type":"event","name":"SwapRequestFulfilled","inputs":[{"name":"requestId","type":"bytes32","indexed":true,"internalType":"bytes32"},{"name":"srcChainId","type":"uint256","indexed":true,"internalType":"uint256"},{"name":"dstChainId","type":"uint256","indexed":true,"internalType":"uint256"}],"anonymous":false},{"type":"event","name":"SwapRequestSolverFeeUpdated","inputs":[{"name":"requestId","type":"bytes32","indexed":true,"internalType":"bytes32"}],"anonymous":false},{"type":"event","name":"SwapRequested","inputs":[{"name":"requestId","type":"bytes32","indexed":true,"internalType":"bytes32"},{"name":"srcChainId","type":"uint256","indexed":true,"internalType":"uint256"},{"name":"dstChainId","type":"uint256","indexed":true,"internalType":"uint256"}],"anonymous":false},{"type":"event","name":"TokenMappingAdded","inputs":[{"name":"dstChainId","type":"uint256","indexed":false,"internalType":"uint256"},{"name":"dstToken","type":"address","indexed":false,"internalType":"address"},{"name":"srcToken","type":"address","indexed":false,"internalType":"address"}],"anonymous":false},{"type":"event","name":"TokenMappingRemoved","inputs":[{"name":"dstChainId","type":"uint256","indexed":false,"internalType":"uint256"},{"name":"dstToken","type":"address","indexed":false,"internalType":"address"},{"name":"srcToken","type":"address","indexed":false,"internalType":"address"}],"anonymous":false},{"type":"event","name":"UpgradeCancelled","inputs":[{"name":"cancelledImplementation","type":"address","indexed":true,"internalType":"address"}],"anonymous":false},{"type":"event","name":"UpgradeExecuted","inputs":[{"name":"newImplementation","type":"address","indexed":true,"internalType":"address"}],"anonymous":false},{"type":"event","name":"UpgradeScheduled","inputs":[{"name":"newImplementation","type":"address","indexed":true,"internalType":"address"},{"name":"executeAfter","type":"uint256","indexed":false,"internalType":"uint256"}],"anonymous":false},{"type":"event","name":"Upgraded","inputs":[{"name":"implementation","type":"address","indexed":true,"internalType":"address"}],"anonymous":false},{"type":"event","name":"VerificationFeeBpsUpdated","inputs":[{"name":"newFeeBps","type":"uint256","indexed":false,"internalType":"uint256"}],"anonymous":false},{"type":"event","name":"VerificationFeeWithdrawn","inputs":[{"name":"token","type":"address","indexed":true,"internalType":"address"},{"name":"recipient","type":"address","indexed":true,"internalType":"address"},{"name":"amountOut","type":"uint256","indexed":false,"internalType":"uint256"}],"anonymous":false},{"type":"error","name":"AccessControlBadConfirmation","inputs":[]},{"type":"error","name":"AccessControlUnauthorizedAccount","inputs":[{"name":"account","type":"address","internalType":"address"},{"name":"neededRole","type":"bytes32","internalType":"bytes32"}]},{"type":"error","name":"AddressEmptyCode","inputs":[{"name":"target","type":"address","internalType":"address"}]},{"type":"error","name":"AlreadyFulfilled","inputs":[]},{"type":"error","name":"BLSSignatureVerificationFailed","inputs":[]},{"type":"error","name":"DestinationChainIdNotSupported","inputs":[{"name":"dstChainId","type":"uint256","internalType":"uint256"}]},{"type":"error","name":"ERC1967InvalidImplementation","inputs":[{"name":"implementation","type":"address","internalType":"address"}]},{"type":"error","name":"ERC1967NonPayable","inputs":[]},{"type":"error","name":"FailedCall","inputs":[]},{"type":"error","name":"FeeBpsExceedsThreshold","inputs":[{"name":"maxFeeBps","type":"uint256","internalType":"uint256"}]},{"type":"error","name":"FeeTooLow","inputs":[]},{"type":"error","name":"GrantRoleFailed","inputs":[]},{"type":"error","name":"InvalidFeeBps","inputs":[]},{"type":"error","name":"InvalidInitialization","inputs":[]},{"type":"error","name":"InvalidTokenOrRecipient","inputs":[]},{"type":"error","name":"NewFeeTooLow","inputs":[{"name":"newFee","type":"uint256","internalType":"uint256"},{"name":"currentFee","type":"uint256","internalType":"uint256"}]},{"type":"error","name":"NoUpgradePending","inputs":[]},{"type":"error","name":"NotInitializing","inputs":[]},{"type":"error","name":"ReentrancyGuardReentrantCall","inputs":[]},{"type":"error","name":"SafeERC20FailedOperation","inputs":[{"name":"token","type":"address","internalType":"address"}]},{"type":"error","name":"SameVersionUpgradeNotAllowed","inputs":[]},{"type":"error","name":"SourceChainIdMismatch","inputs":[{"name":"swapRequestParamsSrcChainId","type":"uint256","internalType":"uint256"},{"name":"contractChainId","type":"uint256","internalType":"uint256"}]},{"type":"error","name":"TokenMappingAlreadyExists","inputs":[]},{"type":"error","name":"TokenNotSupported","inputs":[]},{"type":"error","name":"TooLateToCancelUpgrade","inputs":[{"name":"upgradeTime","type":"uint256","internalType":"uint256"}]},{"type":"error","name":"UUPSUnauthorizedCallContext","inputs":[]},{"type":"error","name":"UUPSUnsupportedProxiableUUID","inputs":[{"name":"slot","type":"bytes32","internalType":"bytes32"}]},{"type":"error","name":"UnauthorisedCaller","inputs":[]},{"type":"error","name":"UpgradeDelayTooShort","inputs":[]},{"type":"error","name":"UpgradeFailed","inputs":[]},{"type":"error","name":"UpgradeMustGoThroughExecuteUpgrade","inputs":[]},{"type":"error","name":"UpgradeTimeMustRespectDelay","inputs":[{"name":"earliestTime","type":"uint256","internalType":"uint256"}]},{"type":"error","name":"UpgradeTooEarly","inputs":[{"name":"upgradeTime","type":"uint256","internalType":"uint256"}]},{"type":"error","name":"ZeroAddress","inputs":[]},{"type":"error","name":"ZeroAmount","inputs":[]}],"bytecode":{"object":"0x60a060405230608052348015610013575f5ffd5b5060015f55610020610025565b6100d7565b7ff0c57e16840df040f15088dc2f81fe391c3923bec73e23a9662efc9c229c6a00805468010000000000000000900460ff16156100755760405163f92ee8a960e01b815260040160405180910390fd5b80546001600160401b03908116146100d45780546001600160401b0319166001600160401b0390811782556040519081527fc7f505b2f371ae2175ee4913f4499e1f2633a7b5936321eed1cdaeb6115181d29060200160405180910390a15b50565b6080516159f06100fd5f395f81816134730152818161349c01526136e901526159f05ff3fe608060405260043610610401575f3560e01c80639193059c1161021d578063b444964c11610122578063d55be8c6116100b7578063e7b7ee9611610087578063f16dea821161006d578063f16dea8214610eee578063f186371314610f81578063f84ae3a914610fa0575f5ffd5b8063e7b7ee9614610dd1578063eb091ac614610ec0575f5ffd5b8063d55be8c614610d52578063daadfec314610d67578063db65070d14610d86578063df91981314610db2575f5ffd5b8063ce123580116100f2578063ce12358014610ce0578063cf756fdf14610cff578063cf97ad3014610d1e578063d547741f14610d33575f5ffd5b8063b444964c14610c59578063b565567714610c83578063c91ba4f514610ca2578063ca15c87314610cc1575f5ffd5b8063a36d15ec116101b2578063a9ee0fc211610182578063ad3cb1cc11610168578063ad3cb1cc14610bdd578063adb610a314610c25578063b073748c14610c3a575f5ffd5b8063a9ee0fc214610baa578063aa15e02914610bc9575f5ffd5b8063a36d15ec14610b38578063a4c5a27a14610b4c578063a9c9f21514610b76578063a9e3652014610b8b575f5ffd5b806399d6120e116101ed57806399d6120e14610aa6578063a217fddf14610ae7578063a24d346114610afa578063a3246ad314610b19575f5ffd5b80639193059c146109cc57806391d14854146109f8578063937ec14f14610a685780639695ec2114610a87575f5ffd5b806344d1da8c116103235780636370d658116102b85780637a1e1a05116102885780637e8962141161026e5780637e896214146109785780638886e5061461098c5780639010d07c146109ad575f5ffd5b80637a1e1a05146109255780637ae5162214610944575f5ffd5b80636370d658146108675780636e3207a61461088657806375b238fc146108b157806377ca1d72146108e4575f5ffd5b8063504da5a9116102f3578063504da5a9146107125780635153a4c31461073f57806352d1902d14610853578063564b81ef146105db575f5ffd5b806344d1da8c1461069557806348749d17146106b45780634b918119146106e05780634f1ef286146106ff575f5ffd5b8063248a9ca3116103995780633475bf8f116103695780633475bf8f1461060c57806336568abe146106385780633ade90e9146106575780633d0aed5014610676575f5ffd5b8063248a9ca31461056f5780632f2ff15d146105bc5780633408e470146105db57806334473af1146105ed575f5ffd5b80630d8e6e2c116103d45780630d8e6e2c146104a6578063143490e1146104f457806315b17da414610509578063191fe1ed1461055a575f5ffd5b806301ffc9a714610405578063027b70471461043957806303f37d3e1461045757806307efe93014610478575b5f5ffd5b348015610410575f5ffd5b5061042461041f366004614a37565b610fb4565b60405190151581526020015b60405180910390f35b348015610444575f5ffd5b506005545b604051908152602001610430565b348015610462575f5ffd5b50610476610471366004614a9e565b61100f565b005b348015610483575f5ffd5b50610424610492366004614ad7565b5f9081526010602052604090205460ff1690565b3480156104b1575f5ffd5b5060408051808201909152600581527f312e302e3000000000000000000000000000000000000000000000000000000060208201525b6040516104309190614b3a565b3480156104ff575f5ffd5b5061044960055481565b348015610514575f5ffd5b506006546105359073ffffffffffffffffffffffffffffffffffffffff1681565b60405173ffffffffffffffffffffffffffffffffffffffff9091168152602001610430565b348015610565575f5ffd5b5061044961271081565b34801561057a575f5ffd5b50610449610589366004614ad7565b5f9081527f02dd7bc7dec4dceedda775e58dd541e08a116c6c53815c0bd028192f7b626800602052604090206001015490565b3480156105c7575f5ffd5b506104766105d6366004614b4c565b611169565b3480156105e6575f5ffd5b5046610449565b3480156105f8575f5ffd5b50610476610607366004614bb4565b6111b2565b348015610617575f5ffd5b5061062b610626366004614ad7565b6111c0565b6040516104309190614bf3565b348015610643575f5ffd5b50610476610652366004614b4c565b61132d565b348015610662575f5ffd5b50610424610671366004614cef565b61138b565b348015610681575f5ffd5b50610476610690366004614d1f565b6113ce565b3480156106a0575f5ffd5b506104766106af366004614ad7565b6114fc565b3480156106bf575f5ffd5b506106d36106ce366004614d47565b611598565b6040516104309190614d6f565b3480156106eb575f5ffd5b506104766106fa366004614dc7565b6115d3565b61047661070d366004614f61565b611806565b34801561071d575f5ffd5b5061073161072c366004614fa2565b611821565b60405161043092919061504b565b34801561074a575f5ffd5b506107d9610759366004614ad7565b600f6020525f9081526040902080546001820154600283015460038401546004850154600586015460068701546007880154600889015460098a0154600a8b0154600b909b015473ffffffffffffffffffffffffffffffffffffffff9a8b169b998b169a98891699989097169795969495939492939192909160ff16908c565b6040805173ffffffffffffffffffffffffffffffffffffffff9d8e1681529b8d1660208d0152998c16998b0199909952999096166060890152608088019490945260a087019290925260c086015260e085015261010084015261012083015291151561014082015261016081019190915261018001610430565b34801561085e575f5ffd5b50610449611939565b348015610872575f5ffd5b50610476610881366004614ad7565b611967565b348015610891575f5ffd5b506104496108a036600461506f565b60126020525f908152604090205481565b3480156108bc575f5ffd5b506104497fa49807205ce4d355092ef5a8a18f56e8913cf4a201fbe287825b095693c2177581565b3480156108ef575f5ffd5b506105356108fe366004614ad7565b60136020525f908152604090205473ffffffffffffffffffffffffffffffffffffffff1681565b348015610930575f5ffd5b5061047661093f366004615088565b6119f5565b34801561094f575f5ffd5b5061096361095e366004614ad7565b611b57565b60408051928352602083019190915201610430565b348015610983575f5ffd5b50610476611b8c565b348015610997575f5ffd5b506109a0611b96565b60405161043091906150a8565b3480156109b8575f5ffd5b506105356109c7366004615088565b611ba7565b3480156109d7575f5ffd5b506002546105359073ffffffffffffffffffffffffffffffffffffffff1681565b348015610a03575f5ffd5b50610424610a12366004614b4c565b5f9182527f02dd7bc7dec4dceedda775e58dd541e08a116c6c53815c0bd028192f7b6268006020908152604080842073ffffffffffffffffffffffffffffffffffffffff93909316845291905290205460ff1690565b348015610a73575f5ffd5b50610731610a82366004614d47565b611be7565b348015610a92575f5ffd5b50610476610aa1366004614a9e565b611d12565b348015610ab1575f5ffd5b50610449610ac036600461506f565b73ffffffffffffffffffffffffffffffffffffffff165f9081526012602052604090205490565b348015610af2575f5ffd5b506104495f81565b348015610b05575f5ffd5b50610449610b143660046150df565b611e88565b348015610b24575f5ffd5b506106d3610b33366004614ad7565b612072565b348015610b43575f5ffd5b506109a06120ae565b348015610b57575f5ffd5b5060065473ffffffffffffffffffffffffffffffffffffffff16610535565b348015610b81575f5ffd5b5061044960045481565b348015610b96575f5ffd5b50610476610ba536600461513a565b6120ba565b348015610bb5575f5ffd5b5061062b610bc43660046151c3565b612214565b348015610bd4575f5ffd5b50600754610449565b348015610be8575f5ffd5b506104e76040518060400160405280600581526020017f352e302e3000000000000000000000000000000000000000000000000000000081525081565b348015610c30575f5ffd5b5061044960015481565b348015610c45575f5ffd5b50610476610c54366004614ad7565b612386565b348015610c64575f5ffd5b5060085473ffffffffffffffffffffffffffffffffffffffff16610535565b348015610c8e575f5ffd5b50610476610c9d366004614ad7565b61245e565b348015610cad575f5ffd5b50610476610cbc366004615234565b612493565b348015610ccc575f5ffd5b50610449610cdb366004614ad7565b612763565b348015610ceb575f5ffd5b50610731610cfa366004614b4c565b61279a565b348015610d0a575f5ffd5b50610476610d1936600461527d565b612981565b348015610d29575f5ffd5b5061044960075481565b348015610d3e575f5ffd5b50610476610d4d366004614b4c565b612c7a565b348015610d5d575f5ffd5b5061044961138881565b348015610d72575f5ffd5b50610449610d813660046152dd565b612cbd565b348015610d91575f5ffd5b506008546105359073ffffffffffffffffffffffffffffffffffffffff1681565b348015610dbd575f5ffd5b50610476610dcc36600461539b565b612d58565b348015610ddc575f5ffd5b50610e64610deb366004614ad7565b60146020525f90815260409020805460018201546002830154600384015460048501546005860154600687015460079097015495969495939473ffffffffffffffffffffffffffffffffffffffff808516957401000000000000000000000000000000000000000090950460ff16949381169392169189565b60408051998a5260208a01989098529688019590955273ffffffffffffffffffffffffffffffffffffffff93841660608801529115156080870152821660a08601521660c084015260e083015261010082015261012001610430565b348015610ecb575f5ffd5b50610424610eda366004614ad7565b60106020525f908152604090205460ff1681565b348015610ef9575f5ffd5b50610e64610f08366004614ad7565b5f908152601460205260409020805460018201546002830154600384015460048501546005860154600687015460079097015495979496939573ffffffffffffffffffffffffffffffffffffffff808516967401000000000000000000000000000000000000000090950460ff16959381169492169291565b348015610f8c575f5ffd5b50610476610f9b36600461539b565b612f09565b348015610fab575f5ffd5b506109a0612f14565b5f7fffffffff0000000000000000000000000000000000000000000000000000000082167f5a05180f000000000000000000000000000000000000000000000000000000001480611009575061100982612f20565b92915050565b6110387fa49807205ce4d355092ef5a8a18f56e8913cf4a201fbe287825b095693c21775612fb6565b5f83815260106020526040902054839060ff1661108d576040517f7c61178e00000000000000000000000000000000000000000000000000000000815260040161108491815260200190565b60405180910390fd5b5061109981848461138b565b6110cf576040517f3dd1b30500000000000000000000000000000000000000000000000000000000815260040160405180910390fd5b73ffffffffffffffffffffffffffffffffffffffff81165f90815260116020908152604080832086845290915290206111089083612fc0565b506040805184815273ffffffffffffffffffffffffffffffffffffffff80851660208301528316918101919091527fa68c84bf085871be353dffa2cf1d898b864f4bfec8d7963268277b65609fc88e906060015b60405180910390a1505050565b5f8281527f02dd7bc7dec4dceedda775e58dd541e08a116c6c53815c0bd028192f7b62680060205260409020600101546111a281612fb6565b6111ac8383612fe1565b50505050565b6111bc8282613036565b5050565b6112726040518061018001604052805f73ffffffffffffffffffffffffffffffffffffffff1681526020015f73ffffffffffffffffffffffffffffffffffffffff1681526020015f73ffffffffffffffffffffffffffffffffffffffff1681526020015f73ffffffffffffffffffffffffffffffffffffffff1681526020015f81526020015f81526020015f81526020015f81526020015f81526020015f81526020015f151581526020015f81525090565b505f908152600f6020908152604091829020825161018081018452815473ffffffffffffffffffffffffffffffffffffffff9081168252600183015481169382019390935260028201548316938101939093526003810154909116606083015260048101546080830152600581015460a0830152600681015460c0830152600781015460e083015260088101546101008301526009810154610120830152600a81015460ff161515610140830152600b015461016082015290565b73ffffffffffffffffffffffffffffffffffffffff8116331461137c576040517f6697b23200000000000000000000000000000000000000000000000000000000815260040160405180910390fd5b61138682826132fd565b505050565b73ffffffffffffffffffffffffffffffffffffffff83165f90815260116020908152604080832085845290915281206113c49083613349565b90505b9392505050565b6113f77fa49807205ce4d355092ef5a8a18f56e8913cf4a201fbe287825b095693c21775612fb6565b6113ff613377565b73ffffffffffffffffffffffffffffffffffffffff82165f908152601260205260409020548061145b576040517f1f2a200500000000000000000000000000000000000000000000000000000000815260040160405180910390fd5b73ffffffffffffffffffffffffffffffffffffffff83165f8181526012602052604081205561148b9083836133b8565b8173ffffffffffffffffffffffffffffffffffffffff168373ffffffffffffffffffffffffffffffffffffffff167f7e9246bb8df4f64094b38fb719d53d4aca12a45a519e1459fd099fa8c17dd3b0836040516114ea91815260200190565b60405180910390a3506111bc60015f55565b6115257fa49807205ce4d355092ef5a8a18f56e8913cf4a201fbe287825b095693c21775612fb6565b5f818152601060205260409081902080547fffffffffffffffffffffffffffffffffffffffffffffffffffffffffffffff00166001179055517f047b2668ff544a8bbf30bd7ba3e75486baa01a04badf5386b6c3bc9a7da4d6639061158d9083815260200190565b60405180910390a150565b73ffffffffffffffffffffffffffffffffffffffff82165f90815260116020908152604080832084845290915290206060906113c790613439565b6115db613377565b5f838152600f60205260409020600a81015460ff1615611627576040517f4a4117f900000000000000000000000000000000000000000000000000000000815260040160405180910390fd5b60058101544681811461166f576040517f744a148100000000000000000000000000000000000000000000000000000000815260048101929092526024820152604401611084565b50505f61167c858761279a565b6008546040517f31f5912200000000000000000000000000000000000000000000000000000000815291935073ffffffffffffffffffffffffffffffffffffffff1691506331f59122906116d8908490889088906004016153ea565b602060405180830381865afa1580156116f3573d5f5f3e3d5ffd5b505050506040513d601f19601f82011682018060405250810190611717919061544c565b61174d576040517fd24bb4ea00000000000000000000000000000000000000000000000000000000815260040160405180910390fd5b611758600d86613445565b50611764600b86613450565b50600a820180547fffffffffffffffffffffffffffffffffffffffffffffffffffffffffffffff00166001179055600882015460048301545f916117a791615494565b60028401549091506117d09073ffffffffffffffffffffffffffffffffffffffff1688836133b8565b60405186907fa8ee081f5df03ba00255280c781ed6a1a67c970250e3686f958c19accb08d480905f90a25050506111ac60015f55565b61180e61345b565b6118178261355f565b6111bc8282613598565b6060805f8888888888884660405160200161184297969594939291906154a7565b604080517fffffffffffffffffffffffffffffffffffffffffffffffffffffffffffffffe0818403018152908290526006547feae1e15b0000000000000000000000000000000000000000000000000000000083529092505f9173ffffffffffffffffffffffffffffffffffffffff9091169063eae1e15b906118c9908590600401614b3a565b5f60405180830381865afa1580156118e3573d5f5f3e3d5ffd5b505050506040513d5f823e601f3d9081017fffffffffffffffffffffffffffffffffffffffffffffffffffffffffffffffe01682016040526119289190810190615559565b919a91995090975050505050505050565b5f6119426136d1565b507f360894a13ba1a3210667c828492db98dca3e2076cc3735a920a3ca505d382bbc90565b6119907fa49807205ce4d355092ef5a8a18f56e8913cf4a201fbe287825b095693c21775612fb6565b5f818152601060205260409081902080547fffffffffffffffffffffffffffffffffffffffffffffffffffffffffffffff00169055517ff07f42691c978b524369cf2893a7ca31ff408e49e086286e9cae920ddf94c1199061158d9083815260200190565b6119fd613377565b5f828152600f60205260409020600a81015460ff1615611a49576040517f4a4117f900000000000000000000000000000000000000000000000000000000815260040160405180910390fd5b805473ffffffffffffffffffffffffffffffffffffffff163314611a99576040517f02cda8fe00000000000000000000000000000000000000000000000000000000815260040160405180910390fd5b60088101548290808211611ae2576040517f1b97bd2a00000000000000000000000000000000000000000000000000000000815260048101929092526024820152604401611084565b5050611b1c3330836008015485611af9919061559e565b600285015473ffffffffffffffffffffffffffffffffffffffff16929190613740565b6008810182905560405183907f2a33225c18747939dcf3b2bd3183bd352a2618e333ae356ad7352e8045719093905f90a2506111bc60015f55565b5f5f5f61271060075485611b6b91906155b1565b611b7591906155c8565b905080611b82818661559e565b9250925050915091565b611b94613786565b565b6060611ba2600b613439565b905090565b5f8281527fc1f6fe24621ce81ec5827caf0253cadb74709b061630e6b55e82371705932000602081905260408220611bdf9084613a98565b949350505050565b6060805f8484466040805173ffffffffffffffffffffffffffffffffffffffff90941660208501528301919091526060820152608001604080517fffffffffffffffffffffffffffffffffffffffffffffffffffffffffffffffe0818403018152908290526006547feae1e15b0000000000000000000000000000000000000000000000000000000083529092505f9173ffffffffffffffffffffffffffffffffffffffff9091169063eae1e15b90611ca4908590600401614b3a565b5f60405180830381865afa158015611cbe573d5f5f3e3d5ffd5b505050506040513d5f823e601f3d9081017fffffffffffffffffffffffffffffffffffffffffffffffffffffffffffffffe0168201604052611d039190810190615559565b919350909150505b9250929050565b611d3b7fa49807205ce4d355092ef5a8a18f56e8913cf4a201fbe287825b095693c21775612fb6565b5f83815260106020526040902054839060ff16611d87576040517f7c61178e00000000000000000000000000000000000000000000000000000000815260040161108491815260200190565b5073ffffffffffffffffffffffffffffffffffffffff81165f9081526011602090815260408083208684529091529020611dc19083613349565b15611df8576040517f800ef11e00000000000000000000000000000000000000000000000000000000815260040160405180910390fd5b73ffffffffffffffffffffffffffffffffffffffff81165f9081526011602090815260408083208684529091529020611e319083613aa3565b506040805184815273ffffffffffffffffffffffffffffffffffffffff80851660208301528316918101919091527ef6b276aebfc163c3646a63a0286f845fdd2df56be91b61b62044067ce849a49060600161115c565b5f611e91613377565b5f8511611eca576040517f1f2a200500000000000000000000000000000000000000000000000000000000815260040160405180910390fd5b611ed587848861138b565b611f0b576040517f3dd1b30500000000000000000000000000000000000000000000000000000000815260040160405180910390fd5b5f5f611f1687611b57565b915091505f8611611f53576040517f732f941300000000000000000000000000000000000000000000000000000000815260040160405180910390fd5b73ffffffffffffffffffffffffffffffffffffffff89165f9081526012602052604081208054849290611f87908490615494565b925050819055505f60015f8154611f9d90615600565b91829055505f81815260136020526040812080547fffffffffffffffffffffffff00000000000000000000000000000000000000001633179055909150611fea8b8b85878c8c8c89612214565b9050611ff581612cbd565b94506120018582613ac4565b61202f33306120108b8d615494565b73ffffffffffffffffffffffffffffffffffffffff8f16929190613740565b864660405187907fe2f0160fbe779abb246276d49dac0cb97c86df7cb72a510bb9cf21486f5c82af905f90a45050505061206860015f55565b9695505050505050565b5f8181527fc1f6fe24621ce81ec5827caf0253cadb74709b061630e6b55e8237170593200060208190526040909120606091906113c790613439565b6060611ba2600d613439565b60408051808201909152600581527f312e302e3000000000000000000000000000000000000000000000000000000060208201526040516020016120fe919061564e565b604051602081830303815290604052805190602001208673ffffffffffffffffffffffffffffffffffffffff16630d8e6e2c6040518163ffffffff1660e01b81526004015f60405180830381865afa15801561215c573d5f5f3e3d5ffd5b505050506040513d5f823e601f3d9081017fffffffffffffffffffffffffffffffffffffffffffffffffffffffffffffffe01682016040526121a19190810190615559565b6040516020016121b1919061564e565b60405160208183030381529060405280519060200120036121fe576040517f157224fe00000000000000000000000000000000000000000000000000000000815260040160405180910390fd5b61220c868686868686613be3565b505050505050565b6122c66040518061018001604052805f73ffffffffffffffffffffffffffffffffffffffff1681526020015f73ffffffffffffffffffffffffffffffffffffffff1681526020015f73ffffffffffffffffffffffffffffffffffffffff1681526020015f73ffffffffffffffffffffffffffffffffffffffff1681526020015f81526020015f81526020015f81526020015f81526020015f81526020015f81526020015f151581526020015f81525090565b6040518061018001604052803373ffffffffffffffffffffffffffffffffffffffff1681526020018473ffffffffffffffffffffffffffffffffffffffff1681526020018a73ffffffffffffffffffffffffffffffffffffffff1681526020018973ffffffffffffffffffffffffffffffffffffffff16815260200188815260200161234f4690565b81526020018581526020018781526020018681526020018381526020015f1515815260200142815250905098975050505050505050565b6123af7fa49807205ce4d355092ef5a8a18f56e8913cf4a201fbe287825b095693c21775612fb6565b611388808211156123ef576040517f48e4389e00000000000000000000000000000000000000000000000000000000815260040161108491815260200190565b505f8111612429576040517f8bff87cf00000000000000000000000000000000000000000000000000000000815260040160405180910390fd5b60078190556040518181527f853dd170f8306bb1eeb26a45f33d38947149fd8cffed21be04553a55a45a7b6e9060200161158d565b6124877fa49807205ce4d355092ef5a8a18f56e8913cf4a201fbe287825b095693c21775612fb6565b61249081613f08565b50565b61249b613377565b5f8281526014602052604090206003015474010000000000000000000000000000000000000000900460ff16156124fe576040517f4a4117f900000000000000000000000000000000000000000000000000000000815260040160405180910390fd5b73ffffffffffffffffffffffffffffffffffffffff851615801590612538575073ffffffffffffffffffffffffffffffffffffffff841615155b61256e576040517f295ba29000000000000000000000000000000000000000000000000000000000815260040160405180910390fd5b5f83116125a7576040517f1f2a200500000000000000000000000000000000000000000000000000000000815260040160405180910390fd5b6125b2600983613445565b506125d573ffffffffffffffffffffffffffffffffffffffff8616338686613740565b6040518061012001604052808381526020018281526020016125f44690565b815273ffffffffffffffffffffffffffffffffffffffff80881660208084019190915260016040808501829052336060808701919091528a851660808088019190915260a08088018c90524260c0988901525f8b81526014875284902089518155958901519486019490945591870151600285015586015160038401805492880151151574010000000000000000000000000000000000000000027fffffffffffffffffffffff000000000000000000000000000000000000000000909316918616919091179190911790558401516004820180549184167fffffffffffffffffffffffff00000000000000000000000000000000000000009283161790559284015160058201805491909316931692909217905560e08201516006820155610100909101516007909101556127274690565b604051829084907f5819a5ec71a56682e3e8a46c40394c82de95e50a8d4aac7c7e2039d83feec174905f90a461275c60015f55565b5050505050565b5f8181527fc1f6fe24621ce81ec5827caf0253cadb74709b061630e6b55e823717059320006020819052604082206113c790613f79565b60608073ffffffffffffffffffffffffffffffffffffffff83166127ea576040517fd92e233d00000000000000000000000000000000000000000000000000000000815260040160405180910390fd5b5f6127f4856111c0565b905083815f015182602001518360400151846060015185608001518660a001518760c001518861012001516040516020016128959998979695949392919073ffffffffffffffffffffffffffffffffffffffff998a16815297891660208901529588166040880152938716606087015291909516608085015260a084019490945260c083019390935260e08201929092526101008101919091526101200190565b604080517fffffffffffffffffffffffffffffffffffffffffffffffffffffffffffffffe0818403018152908290526008547feae1e15b00000000000000000000000000000000000000000000000000000000835290945073ffffffffffffffffffffffffffffffffffffffff169063eae1e15b90612918908690600401614b3a565b5f60405180830381865afa158015612932573d5f5f3e3d5ffd5b505050506040513d5f823e601f3d9081017fffffffffffffffffffffffffffffffffffffffffffffffffffffffffffffffe01682016040526129779190810190615559565b9150509250929050565b5f61298a613f82565b805490915060ff68010000000000000000820416159067ffffffffffffffff165f811580156129b65750825b90505f8267ffffffffffffffff1660011480156129d25750303b155b9050811580156129e0575080155b15612a17576040517ff92ee8a900000000000000000000000000000000000000000000000000000000815260040160405180910390fd5b84547fffffffffffffffffffffffffffffffffffffffffffffffff00000000000000001660011785558315612a785784547fffffffffffffffffffffffffffffffffffffffffffffff00ffffffffffffffff16680100000000000000001785555b612a80613faa565b612a88613faa565b612a95876202a300613fb2565b5f86118015612aa657506113888611155b612adc576040517f8bff87cf00000000000000000000000000000000000000000000000000000000815260040160405180910390fd5b73ffffffffffffffffffffffffffffffffffffffff8816612b29576040517fd92e233d00000000000000000000000000000000000000000000000000000000815260040160405180910390fd5b612b537fa49807205ce4d355092ef5a8a18f56e8913cf4a201fbe287825b095693c217758a612fe1565b612b89576040517f589efb5000000000000000000000000000000000000000000000000000000000815260040160405180910390fd5b612b935f8a612fe1565b612bc9576040517f589efb5000000000000000000000000000000000000000000000000000000000815260040160405180910390fd5b6007869055600880547fffffffffffffffffffffffff00000000000000000000000000000000000000001673ffffffffffffffffffffffffffffffffffffffff8a161790558315612c6f5784547fffffffffffffffffffffffffffffffffffffffffffffff00ffffffffffffffff168555604051600181527fc7f505b2f371ae2175ee4913f4499e1f2633a7b5936321eed1cdaeb6115181d29060200160405180910390a15b505050505050505050565b5f8281527f02dd7bc7dec4dceedda775e58dd541e08a116c6c53815c0bd028192f7b6268006020526040902060010154612cb381612fb6565b6111ac83836132fd565b5f815f01518260200151836040015184606001518560800151612cdd4690565b60c080890151610120808b01516040805173ffffffffffffffffffffffffffffffffffffffff9b8c166020820152998b16908a0152968916606089015297909416608087015260a08601929092529084015260e083015261010082015201604051602081830303815290604052805190602001209050919050565b73ffffffffffffffffffffffffffffffffffffffff8316612da5576040517fd92e233d00000000000000000000000000000000000000000000000000000000815260040160405180910390fd5b5f60015f8154612db490615600565b918290555090505f612dc68583611be7565b6006546040517f31f5912200000000000000000000000000000000000000000000000000000000815291935073ffffffffffffffffffffffffffffffffffffffff1691506331f5912290612e22908490889088906004016153ea565b602060405180830381865afa158015612e3d573d5f5f3e3d5ffd5b505050506040513d601f19601f82011682018060405250810190612e61919061544c565b612e97576040517fd24bb4ea00000000000000000000000000000000000000000000000000000000815260040160405180910390fd5b600880547fffffffffffffffffffffffff00000000000000000000000000000000000000001673ffffffffffffffffffffffffffffffffffffffff87169081179091556040517fc37fcad33674251baba1cbc16b2e8e3883ff25e6105973bc7a7f9bd7fafc2199905f90a25050505050565b61138683838361408f565b6060611ba26009613439565b5f7fffffffff0000000000000000000000000000000000000000000000000000000082167f7965db0b00000000000000000000000000000000000000000000000000000000148061100957507f01ffc9a7000000000000000000000000000000000000000000000000000000007fffffffff00000000000000000000000000000000000000000000000000000000831614611009565b6124908133614240565b5f6113c78373ffffffffffffffffffffffffffffffffffffffff84166142e6565b5f7fc1f6fe24621ce81ec5827caf0253cadb74709b061630e6b55e823717059320008161300e85856143c9565b90508015611bdf575f85815260208390526040902061302d9085613aa3565b50949350505050565b600454428111613075576040517fb19fe45800000000000000000000000000000000000000000000000000000000815260040161108491815260200190565b505f6040518060400160405280600681526020017f63616e63656c000000000000000000000000000000000000000000000000000081525090505f60015f81546130be90615600565b9182905550600254600380549293505f9261317f92869273ffffffffffffffffffffffffffffffffffffffff909116918291906130fa90615659565b80601f016020809104026020016040519081016040528092919081815260200182805461312690615659565b80156131715780601f1061314857610100808354040283529160200191613171565b820191905f5260205f20905b81548152906001019060200180831161315457829003601f168201915b505050505060045487611821565b6006546040517f31f5912200000000000000000000000000000000000000000000000000000000815291935073ffffffffffffffffffffffffffffffffffffffff1691506331f59122906131db908490899089906004016153ea565b602060405180830381865afa1580156131f6573d5f5f3e3d5ffd5b505050506040513d601f19601f8201168201806040525081019061321a919061544c565b613250576040517fd24bb4ea00000000000000000000000000000000000000000000000000000000815260040160405180910390fd5b600280547fffffffffffffffffffffffff000000000000000000000000000000000000000081169091555f6004819055604080516020810190915290815273ffffffffffffffffffffffffffffffffffffffff909116906003906132b490826156ee565b5060405173ffffffffffffffffffffffffffffffffffffffff8216907f3198dc80249fcfedbd0d06e1ff49a7695a51b006592328ce0b127cdeab77e936905f90a2505050505050565b5f7fc1f6fe24621ce81ec5827caf0253cadb74709b061630e6b55e823717059320008161332a85856144de565b90508015611bdf575f85815260208390526040902061302d9085612fc0565b73ffffffffffffffffffffffffffffffffffffffff81165f90815260018301602052604081205415156113c7565b60025f54036133b2576040517f3ee5aeb500000000000000000000000000000000000000000000000000000000815260040160405180910390fd5b60025f55565b60405173ffffffffffffffffffffffffffffffffffffffff83811660248301526044820183905261138691859182169063a9059cbb906064015b604051602081830303815290604052915060e01b6020820180517bffffffffffffffffffffffffffffffffffffffffffffffffffffffff83818316178352505050506145ba565b60605f6113c783614659565b5f6113c783836146b2565b5f6113c783836142e6565b3073ffffffffffffffffffffffffffffffffffffffff7f000000000000000000000000000000000000000000000000000000000000000016148061352857507f000000000000000000000000000000000000000000000000000000000000000073ffffffffffffffffffffffffffffffffffffffff1661350f7f360894a13ba1a3210667c828492db98dca3e2076cc3735a920a3ca505d382bbc5473ffffffffffffffffffffffffffffffffffffffff1690565b73ffffffffffffffffffffffffffffffffffffffff1614155b15611b94576040517fe07c8dba00000000000000000000000000000000000000000000000000000000815260040160405180910390fd5b333014612490576040517f5cb4a60600000000000000000000000000000000000000000000000000000000815260040160405180910390fd5b8173ffffffffffffffffffffffffffffffffffffffff166352d1902d6040518163ffffffff1660e01b8152600401602060405180830381865afa92505050801561361d575060408051601f3d9081017fffffffffffffffffffffffffffffffffffffffffffffffffffffffffffffffe016820190925261361a91810190615805565b60015b61366b576040517f4c9c8ce300000000000000000000000000000000000000000000000000000000815273ffffffffffffffffffffffffffffffffffffffff83166004820152602401611084565b7f360894a13ba1a3210667c828492db98dca3e2076cc3735a920a3ca505d382bbc81146136c7576040517faa1d49a400000000000000000000000000000000000000000000000000000000815260048101829052602401611084565b61138683836146fe565b3073ffffffffffffffffffffffffffffffffffffffff7f00000000000000000000000000000000000000000000000000000000000000001614611b94576040517fe07c8dba00000000000000000000000000000000000000000000000000000000815260040160405180910390fd5b60405173ffffffffffffffffffffffffffffffffffffffff84811660248301528381166044830152606482018390526111ac9186918216906323b872dd906084016133f2565b60025473ffffffffffffffffffffffffffffffffffffffff166137d5576040517f52c650f900000000000000000000000000000000000000000000000000000000815260040160405180910390fd5b60045442811115613815576040517f61813b8000000000000000000000000000000000000000000000000000000000815260040161108491815260200190565b506002546003805473ffffffffffffffffffffffffffffffffffffffff909216915f919061384290615659565b80601f016020809104026020016040519081016040528092919081815260200182805461386e90615659565b80156138b95780601f10613890576101008083540402835291602001916138b9565b820191905f5260205f20905b81548152906001019060200180831161389c57829003601f168201915b5050600280547fffffffffffffffffffffffff000000000000000000000000000000000000000016905550505f6004819055604080516020810190915290815291925060039161390a9150826156ee565b505f5f3073ffffffffffffffffffffffffffffffffffffffff16634f1ef28660e01b858560405160240161393f92919061581c565b604080517fffffffffffffffffffffffffffffffffffffffffffffffffffffffffffffffe08184030181529181526020820180517bffffffffffffffffffffffffffffffffffffffffffffffffffffffff167fffffffff000000000000000000000000000000000000000000000000000000009094169390931790925290516139c8919061564e565b5f604051808303815f865af19150503d805f8114613a01576040519150601f19603f3d011682016040523d82523d5f602084013e613a06565b606091505b509150915081613a5257805115613a205780518060208301fd5b6040517f55299b4900000000000000000000000000000000000000000000000000000000815260040160405180910390fd5b60405173ffffffffffffffffffffffffffffffffffffffff8516907ffd5a9ae7c73c11fde86dd61704e937a04c99e7eef668050f685aabc5d8a6b2e4905f90a250505050565b5f6113c78383614760565b5f6113c78373ffffffffffffffffffffffffffffffffffffffff84166146b2565b5f828152600f6020908152604091829020835181547fffffffffffffffffffffffff000000000000000000000000000000000000000090811673ffffffffffffffffffffffffffffffffffffffff928316178355928501516001830180548516918316919091179055928401516002820180548416918516919091179055606084015160038201805490931693169290921790556080820151600482015560a0820151600582015560c0820151600682015560e0820151600782015561010082015160088201556101208201516009820155610140820151600a820180547fffffffffffffffffffffffffffffffffffffffffffffffffffffffffffffff0016911515919091179055610160820151600b918201556113869083613445565b73ffffffffffffffffffffffffffffffffffffffff8616613c30576040517fd92e233d00000000000000000000000000000000000000000000000000000000815260040160405180910390fd5b60025473ffffffffffffffffffffffffffffffffffffffff808816911603613c84576040517f157224fe00000000000000000000000000000000000000000000000000000000815260040160405180910390fd5b600554613c919042615494565b83101560055490613cd1576040517f0cd4e2d600000000000000000000000000000000000000000000000000000000815260040161108491815260200190565b505f6040518060400160405280600881526020017f7363686564756c6500000000000000000000000000000000000000000000000081525090505f60015f8154613d1a90615600565b91905081905590505f613d898360025f9054906101000a900473ffffffffffffffffffffffffffffffffffffffff168b8b8b8080601f0160208091040260200160405190810160405280939291908181526020018383808284375f920191909152508d92508991506118219050565b6006546040517f31f5912200000000000000000000000000000000000000000000000000000000815291935073ffffffffffffffffffffffffffffffffffffffff1691506331f5912290613de5908490899089906004016153ea565b602060405180830381865afa158015613e00573d5f5f3e3d5ffd5b505050506040513d601f19601f82011682018060405250810190613e24919061544c565b613e5a576040517fd24bb4ea00000000000000000000000000000000000000000000000000000000815260040160405180910390fd5b600280547fffffffffffffffffffffffff00000000000000000000000000000000000000001673ffffffffffffffffffffffffffffffffffffffff8b1617905560048690556003613eac888a8361584a565b508873ffffffffffffffffffffffffffffffffffffffff167fe1009627653eb47f7d0f3b4435749f7984a803c21f84a076cc4dcb0412cf066f87604051613ef591815260200190565b60405180910390a2505050505050505050565b6202a3008111613f44576040517f65e1b9dc00000000000000000000000000000000000000000000000000000000815260040160405180910390fd5b60058190556040518181527fe28f4f0d71292e4c2c0d6449ff0ddc8312fb9eeb604ca560c4dbe120fdf107ce9060200161158d565b5f611009825490565b5f807ff0c57e16840df040f15088dc2f81fe391c3923bec73e23a9662efc9c229c6a00611009565b611b94614786565b613fba614786565b73ffffffffffffffffffffffffffffffffffffffff8216614007576040517fd92e233d00000000000000000000000000000000000000000000000000000000815260040160405180910390fd5b6202a300811015614044576040517f65e1b9dc00000000000000000000000000000000000000000000000000000000815260040160405180910390fd5b600680547fffffffffffffffffffffffff00000000000000000000000000000000000000001673ffffffffffffffffffffffffffffffffffffffff9390931692909217909155600555565b73ffffffffffffffffffffffffffffffffffffffff83166140dc576040517fd92e233d00000000000000000000000000000000000000000000000000000000815260040160405180910390fd5b5f60015f81546140eb90615600565b918290555090505f6140fd8583611be7565b6006546040517f31f5912200000000000000000000000000000000000000000000000000000000815291935073ffffffffffffffffffffffffffffffffffffffff1691506331f5912290614159908490889088906004016153ea565b602060405180830381865afa158015614174573d5f5f3e3d5ffd5b505050506040513d601f19601f82011682018060405250810190614198919061544c565b6141ce576040517fd24bb4ea00000000000000000000000000000000000000000000000000000000815260040160405180910390fd5b600680547fffffffffffffffffffffffff00000000000000000000000000000000000000001673ffffffffffffffffffffffffffffffffffffffff87169081179091556040517f78a7faffd49667f6d2bc16fa2c528710c09fc0aa73325a3f28e161f8ae3ef4a1905f90a25050505050565b5f8281527f02dd7bc7dec4dceedda775e58dd541e08a116c6c53815c0bd028192f7b6268006020908152604080832073ffffffffffffffffffffffffffffffffffffffff8516845290915290205460ff166111bc576040517fe2517d3f00000000000000000000000000000000000000000000000000000000815273ffffffffffffffffffffffffffffffffffffffff8216600482015260248101839052604401611084565b5f81815260018301602052604081205480156143c0575f61430860018361559e565b85549091505f9061431b9060019061559e565b905080821461437a575f865f01828154811061433957614339615960565b905f5260205f200154905080875f01848154811061435957614359615960565b5f918252602080832090910192909255918252600188019052604090208390555b855486908061438b5761438b61598d565b600190038181905f5260205f20015f90559055856001015f8681526020019081526020015f205f905560019350505050611009565b5f915050611009565b5f8281527f02dd7bc7dec4dceedda775e58dd541e08a116c6c53815c0bd028192f7b6268006020818152604080842073ffffffffffffffffffffffffffffffffffffffff8616855290915282205460ff166143c0575f8481526020828152604080832073ffffffffffffffffffffffffffffffffffffffff87168452909152902080547fffffffffffffffffffffffffffffffffffffffffffffffffffffffffffffff0016600117905561447a3390565b73ffffffffffffffffffffffffffffffffffffffff168373ffffffffffffffffffffffffffffffffffffffff16857f2f8788117e7eff1d82e926ec794901d17c78024a50270940304540a733656f0d60405160405180910390a46001915050611009565b5f8281527f02dd7bc7dec4dceedda775e58dd541e08a116c6c53815c0bd028192f7b6268006020818152604080842073ffffffffffffffffffffffffffffffffffffffff8616855290915282205460ff16156143c0575f8481526020828152604080832073ffffffffffffffffffffffffffffffffffffffff8716808552925280832080547fffffffffffffffffffffffffffffffffffffffffffffffffffffffffffffff0016905551339287917ff6391f5c32d9c69d2a47ea670b442974b53935d1edc7fd64eb21e047a839171b9190a46001915050611009565b5f5f60205f8451602086015f885af1806145d9576040513d5f823e3d81fd5b50505f513d915081156145f057806001141561460a565b73ffffffffffffffffffffffffffffffffffffffff84163b155b156111ac576040517f5274afe700000000000000000000000000000000000000000000000000000000815273ffffffffffffffffffffffffffffffffffffffff85166004820152602401611084565b6060815f018054806020026020016040519081016040528092919081815260200182805480156146a657602002820191905f5260205f20905b815481526020019060010190808311614692575b50505050509050919050565b5f8181526001830160205260408120546146f757508154600181810184555f848152602080822090930184905584548482528286019093526040902091909155611009565b505f611009565b614707826147c4565b60405173ffffffffffffffffffffffffffffffffffffffff8316907fbc7cd75a20ee27fd9adebab32041f755214dbc6bffa90cc0225b39da2e5c2d3b905f90a2805115614758576113868282614892565b6111bc614911565b5f825f01828154811061477557614775615960565b905f5260205f200154905092915050565b61478e614949565b611b94576040517fd7e6bcf800000000000000000000000000000000000000000000000000000000815260040160405180910390fd5b8073ffffffffffffffffffffffffffffffffffffffff163b5f0361482c576040517f4c9c8ce300000000000000000000000000000000000000000000000000000000815273ffffffffffffffffffffffffffffffffffffffff82166004820152602401611084565b7f360894a13ba1a3210667c828492db98dca3e2076cc3735a920a3ca505d382bbc80547fffffffffffffffffffffffff00000000000000000000000000000000000000001673ffffffffffffffffffffffffffffffffffffffff92909216919091179055565b60605f5f8473ffffffffffffffffffffffffffffffffffffffff16846040516148bb919061564e565b5f60405180830381855af49150503d805f81146148f3576040519150601f19603f3d011682016040523d82523d5f602084013e6148f8565b606091505b5091509150614908858383614967565b95945050505050565b3415611b94576040517fb398979f00000000000000000000000000000000000000000000000000000000815260040160405180910390fd5b5f614952613f82565b5468010000000000000000900460ff16919050565b60608261497c57614977826149f6565b6113c7565b81511580156149a0575073ffffffffffffffffffffffffffffffffffffffff84163b155b156149ef576040517f9996b31500000000000000000000000000000000000000000000000000000000815273ffffffffffffffffffffffffffffffffffffffff85166004820152602401611084565b50806113c7565b805115614a0557805160208201fd5b6040517fd6bda27500000000000000000000000000000000000000000000000000000000815260040160405180910390fd5b5f60208284031215614a47575f5ffd5b81357fffffffff00000000000000000000000000000000000000000000000000000000811681146113c7575f5ffd5b803573ffffffffffffffffffffffffffffffffffffffff81168114614a99575f5ffd5b919050565b5f5f5f60608486031215614ab0575f5ffd5b83359250614ac060208501614a76565b9150614ace60408501614a76565b90509250925092565b5f60208284031215614ae7575f5ffd5b5035919050565b5f81518084528060208401602086015e5f6020828601015260207fffffffffffffffffffffffffffffffffffffffffffffffffffffffffffffffe0601f83011685010191505092915050565b602081525f6113c76020830184614aee565b5f5f60408385031215614b5d575f5ffd5b82359150614b6d60208401614a76565b90509250929050565b5f5f83601f840112614b86575f5ffd5b50813567ffffffffffffffff811115614b9d575f5ffd5b602083019150836020828501011115611d0b575f5ffd5b5f5f60208385031215614bc5575f5ffd5b823567ffffffffffffffff811115614bdb575f5ffd5b614be785828601614b76565b90969095509350505050565b815173ffffffffffffffffffffffffffffffffffffffff16815261018081016020830151614c39602084018273ffffffffffffffffffffffffffffffffffffffff169052565b506040830151614c61604084018273ffffffffffffffffffffffffffffffffffffffff169052565b506060830151614c89606084018273ffffffffffffffffffffffffffffffffffffffff169052565b506080830151608083015260a083015160a083015260c083015160c083015260e083015160e0830152610100830151610100830152610120830151610120830152610140830151614cdf61014084018215159052565b5061016092830151919092015290565b5f5f5f60608486031215614d01575f5ffd5b614d0a84614a76565b925060208401359150614ace60408501614a76565b5f5f60408385031215614d30575f5ffd5b614d3983614a76565b9150614b6d60208401614a76565b5f5f60408385031215614d58575f5ffd5b614d6183614a76565b946020939093013593505050565b602080825282518282018190525f918401906040840190835b81811015614dbc57835173ffffffffffffffffffffffffffffffffffffffff16835260209384019390920191600101614d88565b509095945050505050565b5f5f5f5f60608587031215614dda575f5ffd5b614de385614a76565b935060208501359250604085013567ffffffffffffffff811115614e05575f5ffd5b614e1187828801614b76565b95989497509550505050565b7f4e487b71000000000000000000000000000000000000000000000000000000005f52604160045260245ffd5b604051610180810167ffffffffffffffff81118282101715614e6e57614e6e614e1d565b60405290565b604051601f82017fffffffffffffffffffffffffffffffffffffffffffffffffffffffffffffffe016810167ffffffffffffffff81118282101715614ebb57614ebb614e1d565b604052919050565b5f67ffffffffffffffff821115614edc57614edc614e1d565b50601f017fffffffffffffffffffffffffffffffffffffffffffffffffffffffffffffffe01660200190565b5f614f1a614f1584614ec3565b614e74565b9050828152838383011115614f2d575f5ffd5b828260208301375f602084830101529392505050565b5f82601f830112614f52575f5ffd5b6113c783833560208501614f08565b5f5f60408385031215614f72575f5ffd5b614f7b83614a76565b9150602083013567ffffffffffffffff811115614f96575f5ffd5b61297785828601614f43565b5f5f5f5f5f5f60c08789031215614fb7575f5ffd5b863567ffffffffffffffff811115614fcd575f5ffd5b8701601f81018913614fdd575f5ffd5b614fec89823560208401614f08565b965050614ffb60208801614a76565b945061500960408801614a76565b9350606087013567ffffffffffffffff811115615024575f5ffd5b61503089828a01614f43565b9699959850939660808101359560a090910135945092505050565b604081525f61505d6040830185614aee565b82810360208401526149088185614aee565b5f6020828403121561507f575f5ffd5b6113c782614a76565b5f5f60408385031215615099575f5ffd5b50508035926020909101359150565b602080825282518282018190525f918401906040840190835b81811015614dbc5783518352602093840193909201916001016150c1565b5f5f5f5f5f5f60c087890312156150f4575f5ffd5b6150fd87614a76565b955061510b60208801614a76565b945060408701359350606087013592506080870135915061512e60a08801614a76565b90509295509295509295565b5f5f5f5f5f5f6080878903121561514f575f5ffd5b61515887614a76565b9550602087013567ffffffffffffffff811115615173575f5ffd5b61517f89828a01614b76565b90965094505060408701359250606087013567ffffffffffffffff8111156151a5575f5ffd5b6151b189828a01614b76565b979a9699509497509295939492505050565b5f5f5f5f5f5f5f5f610100898b0312156151db575f5ffd5b6151e489614a76565b97506151f260208a01614a76565b965060408901359550606089013594506080890135935060a0890135925061521c60c08a01614a76565b979a969950949793969295919450919260e001359150565b5f5f5f5f5f60a08688031215615248575f5ffd5b61525186614a76565b945061525f60208701614a76565b94979496505050506040830135926060810135926080909101359150565b5f5f5f5f60808587031215615290575f5ffd5b61529985614a76565b93506152a760208601614a76565b92506152b560408601614a76565b9396929550929360600135925050565b8015158114612490575f5ffd5b8035614a99816152c5565b5f6101808284031280156152ef575f5ffd5b506152f8614e4a565b61530183614a76565b815261530f60208401614a76565b602082015261532060408401614a76565b604082015261533160608401614a76565b60608201526080838101359082015260a0808401359082015260c0808401359082015260e080840135908201526101008084013590820152610120808401359082015261538161014084016152d2565b610140820152610160928301359281019290925250919050565b5f5f5f604084860312156153ad575f5ffd5b6153b684614a76565b9250602084013567ffffffffffffffff8111156153d1575f5ffd5b6153dd86828701614b76565b9497909650939450505050565b604081525f6153fc6040830186614aee565b8281036020840152838152838560208301375f6020858301015260207fffffffffffffffffffffffffffffffffffffffffffffffffffffffffffffffe0601f860116820101915050949350505050565b5f6020828403121561545c575f5ffd5b81516113c7816152c5565b7f4e487b71000000000000000000000000000000000000000000000000000000005f52601160045260245ffd5b8082018082111561100957611009615467565b60e081525f6154b960e083018a614aee565b73ffffffffffffffffffffffffffffffffffffffff8916602084015273ffffffffffffffffffffffffffffffffffffffff8816604084015282810360608401526155038188614aee565b6080840196909652505060a081019290925260c090910152949350505050565b5f615530614f1584614ec3565b9050828152838383011115615543575f5ffd5b8282602083015e5f602084830101529392505050565b5f60208284031215615569575f5ffd5b815167ffffffffffffffff81111561557f575f5ffd5b8201601f8101841361558f575f5ffd5b611bdf84825160208401615523565b8181038181111561100957611009615467565b808202811582820484141761100957611009615467565b5f826155fb577f4e487b71000000000000000000000000000000000000000000000000000000005f52601260045260245ffd5b500490565b5f7fffffffffffffffffffffffffffffffffffffffffffffffffffffffffffffffff820361563057615630615467565b5060010190565b5f81518060208401855e5f93019283525090919050565b5f6113c78284615637565b600181811c9082168061566d57607f821691505b6020821081036156a4577f4e487b71000000000000000000000000000000000000000000000000000000005f52602260045260245ffd5b50919050565b601f82111561138657805f5260205f20601f840160051c810160208510156156cf5750805b601f840160051c820191505b8181101561275c575f81556001016156db565b815167ffffffffffffffff81111561570857615708614e1d565b61571c816157168454615659565b846156aa565b6020601f82116001811461576d575f83156157375750848201515b7fffffffffffffffffffffffffffffffffffffffffffffffffffffffffffffffff600385901b1c1916600184901b17845561275c565b5f848152602081207fffffffffffffffffffffffffffffffffffffffffffffffffffffffffffffffe08516915b828110156157ba578785015182556020948501946001909201910161579a565b50848210156157f657868401517fffffffffffffffffffffffffffffffffffffffffffffffffffffffffffffffff600387901b60f8161c191681555b50505050600190811b01905550565b5f60208284031215615815575f5ffd5b5051919050565b73ffffffffffffffffffffffffffffffffffffffff83168152604060208201525f6113c46040830184614aee565b67ffffffffffffffff83111561586257615862614e1d565b615876836158708354615659565b836156aa565b5f601f8411600181146158c6575f85156158905750838201355b7fffffffffffffffffffffffffffffffffffffffffffffffffffffffffffffffff600387901b1c1916600186901b17835561275c565b5f838152602081207fffffffffffffffffffffffffffffffffffffffffffffffffffffffffffffffe08716915b8281101561591357868501358255602094850194600190920191016158f3565b508682101561594e577fffffffffffffffffffffffffffffffffffffffffffffffffffffffffffffffff60f88860031b161c19848701351681555b505060018560011b0183555050505050565b7f4e487b71000000000000000000000000000000000000000000000000000000005f52603260045260245ffd5b7f4e487b71000000000000000000000000000000000000000000000000000000005f52603160045260245ffdfea26469706673582212205331f6350160e67cac2604814bd162acf07a7aed72d512e12743f2e7e5b4c3b964736f6c634300081e0033","linkReferences":{}},"methodIdentifiers":{"ADMIN_ROLE()":"75b238fc","BPS_DIVISOR()":"191fe1ed","DEFAULT_ADMIN_ROLE()":"a217fddf","MAX_FEE_BPS()":"d55be8c6","UPGRADE_INTERFACE_VERSION()":"ad3cb1cc","allowedDstChainIds(uint256)":"eb091ac6","blockDestinationChainId(uint256)":"6370d658","blsValidatorUpdateParamsToBytes(address,uint256)":"937ec14f","buildSwapRequestParameters(address,address,uint256,uint256,uint256,uint256,address,uint256)":"a9ee0fc2","cancelUpgrade(bytes)":"34473af1","contractUpgradeBlsValidator()":"15b17da4","contractUpgradeParamsToBytes(string,address,address,bytes,uint256,uint256)":"504da5a9","currentNonce()":"adb610a3","executeUpgrade()":"7e896214","getAllowedDstChainId(uint256)":"07efe930","getChainID()":"564b81ef","getChainId()":"3408e470","getContractUpgradeBlsValidator()":"a4c5a27a","getFulfilledSolverRefunds()":"a36d15ec","getFulfilledTransfers()":"f84ae3a9","getMinimumContractUpgradeDelay()":"027b7047","getRoleAdmin(bytes32)":"248a9ca3","getRoleMember(bytes32,uint256)":"9010d07c","getRoleMemberCount(bytes32)":"ca15c873","getRoleMembers(bytes32)":"a3246ad3","getSwapRequestBlsValidator()":"b444964c","getSwapRequestId((address,address,address,address,uint256,uint256,uint256,uint256,uint256,uint256,bool,uint256))":"daadfec3","getSwapRequestParameters(bytes32)":"3475bf8f","getSwapRequestReceipt(bytes32)":"f16dea82","getTokenMapping(address,uint256)":"48749d17","getTotalVerificationFeeBalance(address)":"99d6120e","getUnfulfilledSolverRefunds()":"8886e506","getVerificationFeeAmount(uint256)":"7ae51622","getVerificationFeeBps()":"aa15e029","getVersion()":"0d8e6e2c","grantRole(bytes32,address)":"2f2ff15d","hasRole(bytes32,address)":"91d14854","initialize(address,address,address,uint256)":"cf756fdf","isDstTokenMapped(address,uint256,address)":"3ade90e9","minimumContractUpgradeDelay()":"143490e1","nonceToRequester(uint256)":"77ca1d72","permitDestinationChainId(uint256)":"44d1da8c","proxiableUUID()":"52d1902d","rebalanceSolver(address,bytes32,bytes)":"4b918119","relayTokens(address,address,uint256,bytes32,uint256)":"c91ba4f5","removeTokenMapping(uint256,address,address)":"03f37d3e","renounceRole(bytes32,address)":"36568abe","requestCrossChainSwap(address,address,uint256,uint256,uint256,address)":"a24d3461","revokeRole(bytes32,address)":"d547741f","scheduleUpgrade(address,bytes,uint256,bytes)":"a9e36520","scheduledImplementation()":"9193059c","scheduledTimestampForUpgrade()":"a9c9f215","setContractUpgradeBlsValidator(address,bytes)":"f1863713","setMinimumContractUpgradeDelay(uint256)":"b5655677","setSwapRequestBlsValidator(address,bytes)":"df919813","setTokenMapping(uint256,address,address)":"9695ec21","setVerificationFeeBps(uint256)":"b073748c","supportsInterface(bytes4)":"01ffc9a7","swapRequestBlsValidator()":"db65070d","swapRequestParameters(bytes32)":"5153a4c3","swapRequestParametersToBytes(bytes32,address)":"ce123580","swapRequestReceipts(bytes32)":"e7b7ee96","totalVerificationFeeBalance(address)":"6e3207a6","updateSolverFeesIfUnfulfilled(bytes32,uint256)":"7a1e1a05","upgradeToAndCall(address,bytes)":"4f1ef286","verificationFeeBps()":"cf97ad30","withdrawVerificationFee(address,address)":"3d0aed50"},"id":95}